{
  "address": "0x34B8e19D6C06178308bCe8dcF989161783cA0305",
  "abi": [
    {
      "inputs": [
        {
          "internalType": "address",
          "name": "_invoiceNFT",
          "type": "address"
        },
        {
          "internalType": "address",
          "name": "_lendingToken",
          "type": "address"
        },
        {
          "internalType": "bool",
          "name": "_isMATIC",
          "type": "bool"
        },
        {
          "internalType": "uint256",
          "name": "_baseLTV",
          "type": "uint256"
        },
        {
          "internalType": "uint256",
          "name": "_baseInterestRate",
          "type": "uint256"
        },
        {
          "internalType": "uint256",
          "name": "_minLoanAmount",
          "type": "uint256"
        },
        {
          "internalType": "uint256",
          "name": "_maxLoanAmount",
          "type": "uint256"
        }
      ],
      "stateMutability": "nonpayable",
      "type": "constructor"
    },
    {
      "inputs": [
        {
          "internalType": "address",
          "name": "target",
          "type": "address"
        }
      ],
      "name": "AddressEmptyCode",
      "type": "error"
    },
    {
      "inputs": [
        {
          "internalType": "address",
          "name": "account",
          "type": "address"
        }
      ],
      "name": "AddressInsufficientBalance",
      "type": "error"
    },
    {
      "inputs": [],
      "name": "FailedInnerCall",
      "type": "error"
    },
    {
      "inputs": [
        {
          "internalType": "address",
          "name": "owner",
          "type": "address"
        }
      ],
      "name": "OwnableInvalidOwner",
      "type": "error"
    },
    {
      "inputs": [
        {
          "internalType": "address",
          "name": "account",
          "type": "address"
        }
      ],
      "name": "OwnableUnauthorizedAccount",
      "type": "error"
    },
    {
      "inputs": [],
      "name": "ReentrancyGuardReentrantCall",
      "type": "error"
    },
    {
      "inputs": [
        {
          "internalType": "address",
          "name": "token",
          "type": "address"
        }
      ],
      "name": "SafeERC20FailedOperation",
      "type": "error"
    },
    {
      "anonymous": false,
      "inputs": [
        {
          "indexed": false,
          "internalType": "uint256",
          "name": "newRate",
          "type": "uint256"
        }
      ],
      "name": "InterestRateUpdated",
      "type": "event"
    },
    {
      "anonymous": false,
      "inputs": [
        {
          "indexed": false,
          "internalType": "uint256",
          "name": "newLTV",
          "type": "uint256"
        }
      ],
      "name": "LTVUpdated",
      "type": "event"
    },
    {
      "anonymous": false,
      "inputs": [
        {
          "indexed": true,
          "internalType": "uint256",
          "name": "loanId",
          "type": "uint256"
        },
        {
          "indexed": true,
          "internalType": "uint256",
          "name": "invoiceTokenId",
          "type": "uint256"
        },
        {
          "indexed": true,
          "internalType": "address",
          "name": "borrower",
          "type": "address"
        },
        {
          "indexed": false,
          "internalType": "uint256",
          "name": "borrowedAmount",
          "type": "uint256"
        }
      ],
      "name": "LoanCreated",
      "type": "event"
    },
    {
      "anonymous": false,
      "inputs": [
        {
          "indexed": true,
          "internalType": "uint256",
          "name": "loanId",
          "type": "uint256"
        },
        {
          "indexed": true,
          "internalType": "uint256",
          "name": "invoiceTokenId",
          "type": "uint256"
        },
        {
          "indexed": true,
          "internalType": "address",
          "name": "borrower",
          "type": "address"
        }
      ],
      "name": "LoanLiquidated",
      "type": "event"
    },
    {
      "anonymous": false,
      "inputs": [
        {
          "indexed": true,
          "internalType": "uint256",
          "name": "loanId",
          "type": "uint256"
        },
        {
          "indexed": true,
          "internalType": "address",
          "name": "borrower",
          "type": "address"
        },
        {
          "indexed": false,
          "internalType": "uint256",
          "name": "amountPaid",
          "type": "uint256"
        }
      ],
      "name": "LoanRepaid",
      "type": "event"
    },
    {
      "anonymous": false,
      "inputs": [
        {
          "indexed": true,
          "internalType": "address",
          "name": "previousOwner",
          "type": "address"
        },
        {
          "indexed": true,
          "internalType": "address",
          "name": "newOwner",
          "type": "address"
        }
      ],
      "name": "OwnershipTransferred",
      "type": "event"
    },
    {
      "anonymous": false,
      "inputs": [
        {
          "indexed": true,
          "internalType": "address",
          "name": "lender",
          "type": "address"
        },
        {
          "indexed": false,
          "internalType": "uint256",
          "name": "amount",
          "type": "uint256"
        }
      ],
      "name": "PoolFunded",
      "type": "event"
    },
    {
      "inputs": [],
      "name": "MAX_LTV",
      "outputs": [
        {
          "internalType": "uint256",
          "name": "",
          "type": "uint256"
        }
      ],
      "stateMutability": "view",
      "type": "function"
    },
    {
      "inputs": [],
      "name": "activeLoans",
      "outputs": [
        {
          "internalType": "uint256",
          "name": "",
          "type": "uint256"
        }
      ],
      "stateMutability": "view",
      "type": "function"
    },
    {
      "inputs": [],
      "name": "baseInterestRate",
      "outputs": [
        {
          "internalType": "uint256",
          "name": "",
          "type": "uint256"
        }
      ],
      "stateMutability": "view",
      "type": "function"
    },
    {
      "inputs": [],
      "name": "baseLTV",
      "outputs": [
        {
          "internalType": "uint256",
          "name": "",
          "type": "uint256"
        }
      ],
      "stateMutability": "view",
      "type": "function"
    },
    {
      "inputs": [
        {
          "internalType": "uint256",
          "name": "invoiceTokenId",
          "type": "uint256"
        },
        {
          "internalType": "uint256",
          "name": "desiredAmount",
          "type": "uint256"
        }
      ],
      "name": "borrowAgainstInvoice",
      "outputs": [],
      "stateMutability": "nonpayable",
      "type": "function"
    },
    {
      "inputs": [
        {
          "internalType": "address",
          "name": "",
          "type": "address"
        },
        {
          "internalType": "uint256",
          "name": "",
          "type": "uint256"
        }
      ],
      "name": "borrowerLoans",
      "outputs": [
        {
          "internalType": "uint256",
          "name": "",
          "type": "uint256"
        }
      ],
      "stateMutability": "view",
      "type": "function"
    },
    {
      "inputs": [
        {
          "internalType": "uint256",
          "name": "loanId",
          "type": "uint256"
        }
      ],
      "name": "calculateInterestDue",
      "outputs": [
        {
          "internalType": "uint256",
          "name": "",
          "type": "uint256"
        }
      ],
      "stateMutability": "view",
      "type": "function"
    },
    {
      "inputs": [
        {
          "internalType": "uint256",
          "name": "amount",
          "type": "uint256"
        }
      ],
      "name": "fundPool",
      "outputs": [],
      "stateMutability": "payable",
      "type": "function"
    },
    {
      "inputs": [
        {
          "internalType": "address",
          "name": "borrower",
          "type": "address"
        }
      ],
      "name": "getBorrowerLoans",
      "outputs": [
        {
          "internalType": "uint256[]",
          "name": "",
          "type": "uint256[]"
        }
      ],
      "stateMutability": "view",
      "type": "function"
    },
    {
      "inputs": [],
      "name": "invoiceNFT",
      "outputs": [
        {
          "internalType": "contract InvoiceNFT",
          "name": "",
          "type": "address"
        }
      ],
      "stateMutability": "view",
      "type": "function"
    },
    {
      "inputs": [],
      "name": "isLendingTokenMATIC",
      "outputs": [
        {
          "internalType": "bool",
          "name": "",
          "type": "bool"
        }
      ],
      "stateMutability": "view",
      "type": "function"
    },
    {
      "inputs": [
        {
          "internalType": "uint256",
          "name": "loanId",
          "type": "uint256"
        }
      ],
      "name": "isLoanExpired",
      "outputs": [
        {
          "internalType": "bool",
          "name": "",
          "type": "bool"
        }
      ],
      "stateMutability": "view",
      "type": "function"
    },
    {
      "inputs": [],
      "name": "lendingPoolBalance",
      "outputs": [
        {
          "internalType": "uint256",
          "name": "",
          "type": "uint256"
        }
      ],
      "stateMutability": "view",
      "type": "function"
    },
    {
      "inputs": [],
      "name": "lendingToken",
      "outputs": [
        {
          "internalType": "contract IERC20",
          "name": "",
          "type": "address"
        }
      ],
      "stateMutability": "view",
      "type": "function"
    },
    {
      "inputs": [
        {
          "internalType": "uint256",
          "name": "loanId",
          "type": "uint256"
        }
      ],
      "name": "liquidateLoan",
      "outputs": [],
      "stateMutability": "nonpayable",
      "type": "function"
    },
    {
      "inputs": [],
      "name": "loanCounter",
      "outputs": [
        {
          "internalType": "uint256",
          "name": "",
          "type": "uint256"
        }
      ],
      "stateMutability": "view",
      "type": "function"
    },
    {
      "inputs": [
        {
          "internalType": "uint256",
          "name": "",
          "type": "uint256"
        }
      ],
      "name": "loans",
      "outputs": [
        {
          "internalType": "uint256",
          "name": "invoiceTokenId",
          "type": "uint256"
        },
        {
          "internalType": "address",
          "name": "borrower",
          "type": "address"
        },
        {
          "internalType": "uint256",
          "name": "borrowedAmount",
          "type": "uint256"
        },
        {
          "internalType": "uint256",
          "name": "interestRate",
          "type": "uint256"
        },
        {
          "internalType": "uint256",
          "name": "startTime",
          "type": "uint256"
        },
        {
          "internalType": "uint256",
          "name": "dueDate",
          "type": "uint256"
        },
        {
          "internalType": "bool",
          "name": "repaid",
          "type": "bool"
        }
      ],
      "stateMutability": "view",
      "type": "function"
    },
    {
      "inputs": [],
      "name": "maxLoanAmount",
      "outputs": [
        {
          "internalType": "uint256",
          "name": "",
          "type": "uint256"
        }
      ],
      "stateMutability": "view",
      "type": "function"
    },
    {
      "inputs": [],
      "name": "minLoanAmount",
      "outputs": [
        {
          "internalType": "uint256",
          "name": "",
          "type": "uint256"
        }
      ],
      "stateMutability": "view",
      "type": "function"
    },
    {
      "inputs": [],
      "name": "owner",
      "outputs": [
        {
          "internalType": "address",
          "name": "",
          "type": "address"
        }
      ],
      "stateMutability": "view",
      "type": "function"
    },
    {
      "inputs": [],
      "name": "renounceOwnership",
      "outputs": [],
      "stateMutability": "nonpayable",
      "type": "function"
    },
    {
      "inputs": [
        {
          "internalType": "uint256",
          "name": "loanId",
          "type": "uint256"
        }
      ],
      "name": "repayLoan",
      "outputs": [],
      "stateMutability": "payable",
      "type": "function"
    },
    {
      "inputs": [],
      "name": "totalBorrowed",
      "outputs": [
        {
          "internalType": "uint256",
          "name": "",
          "type": "uint256"
        }
      ],
      "stateMutability": "view",
      "type": "function"
    },
    {
      "inputs": [
        {
          "internalType": "address",
          "name": "newOwner",
          "type": "address"
        }
      ],
      "name": "transferOwnership",
      "outputs": [],
      "stateMutability": "nonpayable",
      "type": "function"
    },
    {
      "inputs": [
        {
          "internalType": "uint256",
          "name": "newRate",
          "type": "uint256"
        }
      ],
      "name": "updateInterestRate",
      "outputs": [],
      "stateMutability": "nonpayable",
      "type": "function"
    },
    {
      "inputs": [
        {
          "internalType": "uint256",
          "name": "newLTV",
          "type": "uint256"
        }
      ],
      "name": "updateLTV",
      "outputs": [],
      "stateMutability": "nonpayable",
      "type": "function"
    },
    {
      "inputs": [
        {
          "internalType": "uint256",
          "name": "amount",
          "type": "uint256"
        }
      ],
      "name": "withdrawLiquidity",
      "outputs": [],
      "stateMutability": "nonpayable",
      "type": "function"
    },
    {
      "stateMutability": "payable",
      "type": "receive"
    }
  ],
  "transactionHash": "0x09045ae7ac8e5168baca4cbad235ad3b9affc2f6631c7eaf455be3ffab9b3d62",
  "args": [
    "0xB202C1E153984028594b0d8217E218C25dFe178e",
    "0x0000000000000000000000000000000000000000",
    true,
    8000,
    500,
    "1000000000000000000",
    "10000000000000000000000"
  ],
  "numDeployments": 1,
  "solcInputHash": "d5dac6d03b1acef46706edc9642b5c43",
  "bytecode": "0x60806040523480156200001157600080fd5b506040516200222538038062002225833981016040819052620000349162000226565b33806200005c57604051631e4fbdf760e01b8152600060048201526024015b60405180910390fd5b6200006781620001b9565b50600180556001600160a01b038716620000c45760405162461bcd60e51b815260206004820152601a60248201527f496e76616c696420496e766f6963654e46542061646472657373000000000000604482015260640162000053565b612710841115620001075760405162461bcd60e51b815260206004820152600c60248201526b098a8ac40e8dede40d0d2ced60a31b604482015260640162000053565b6127108311156200015b5760405162461bcd60e51b815260206004820152601660248201527f496e746572657374207261746520746f6f206869676800000000000000000000604482015260640162000053565b600280546001600160a01b039889166001600160a01b031990911617905560038054951515600160a01b026001600160a81b0319909616969097169590951793909317909455600755600892909255600991909155600a556200029f565b600080546001600160a01b038381166001600160a01b0319831681178455604051919092169283917f8be0079c531659141344cd1fd0a4f28419497f9722a3daafe3b4186f6b6457e09190a35050565b80516001600160a01b03811681146200022157600080fd5b919050565b600080600080600080600060e0888a0312156200024257600080fd5b6200024d8862000209565b96506200025d6020890162000209565b9550604088015180151581146200027357600080fd5b80955050606088015193506080880151925060a0880151915060c0880151905092959891949750929550565b611f7680620002af6000396000f3fe6080604052600436106101a05760003560e01c80638639245d116100ec578063ccfe13f31161008a578063e1ec3c6811610064578063e1ec3c68146104cb578063e3ed19021461056f578063eee8b7ff1461058f578063f2fde38b146105bc57600080fd5b8063ccfe13f31461048c578063da3a5f72146104a2578063e06a9138146104b557600080fd5b8063aaaca558116100c6578063aaaca55814610423578063ab7b1c8914610443578063afd9276214610456578063ccdd9f5d1461046c57600080fd5b80638639245d146103c45780638da5cb5b146103e457806397866c141461040257600080fd5b80634bb6f06d1161015957806372f943651161013357806372f9436514610362578063752a50a6146103785780637e0747891461039857806381bf8d3d146103ae57600080fd5b80634bb6f06d146102ff5780634c19386c14610337578063715018a61461034d57600080fd5b806304a1595c146102305780630a861f2a1461025057806310618223146102705780631326851e146102a557806334d9289e146102c5578063416b40c7146102e957600080fd5b3661022b57600354600160a01b900460ff166102295760405162461bcd60e51b815260206004820152603a60248201527f5468697320636f6e7472616374206f6e6c792061636365707473204d4154494360448201527f207768656e20736574206173206c656e64696e6720746f6b656e00000000000060648201526084015b60405180910390fd5b005b600080fd5b34801561023c57600080fd5b5061022961024b366004611add565b6105dc565b34801561025c57600080fd5b5061022961026b366004611aff565b610cf6565b34801561027c57600080fd5b5061029061028b366004611aff565b610e84565b60405190151581526020015b60405180910390f35b3480156102b157600080fd5b506102296102c0366004611aff565b610f05565b3480156102d157600080fd5b506102db600c5481565b60405190815260200161029c565b3480156102f557600080fd5b506102db60055481565b34801561030b57600080fd5b5060025461031f906001600160a01b031681565b6040516001600160a01b03909116815260200161029c565b34801561034357600080fd5b506102db60065481565b34801561035957600080fd5b50610229610f8a565b34801561036e57600080fd5b506102db600a5481565b34801561038457600080fd5b50610229610393366004611aff565b610f9e565b3480156103a457600080fd5b506102db60075481565b3480156103ba57600080fd5b506102db61271081565b3480156103d057600080fd5b506102db6103df366004611aff565b611026565b3480156103f057600080fd5b506000546001600160a01b031661031f565b34801561040e57600080fd5b5060035461029090600160a01b900460ff1681565b34801561042f57600080fd5b5060035461031f906001600160a01b031681565b610229610451366004611aff565b611119565b34801561046257600080fd5b506102db60085481565b34801561047857600080fd5b50610229610487366004611aff565b61143b565b34801561049857600080fd5b506102db60045481565b6102296104b0366004611aff565b6115db565b3480156104c157600080fd5b506102db60095481565b3480156104d757600080fd5b506105306104e6366004611aff565b600b60205260009081526040902080546001820154600283015460038401546004850154600586015460069096015494956001600160a01b03909416949293919290919060ff1687565b604080519788526001600160a01b039096166020880152948601939093526060850191909152608084015260a0830152151560c082015260e00161029c565b34801561057b57600080fd5b506102db61058a366004611b2d565b61171f565b34801561059b57600080fd5b506105af6105aa366004611b59565b611750565b60405161029c9190611b76565b3480156105c857600080fd5b506102296105d7366004611b59565b6117bc565b6105e46117f7565b6002546040516331a9108f60e11b81526004810184905233916001600160a01b031690636352211e90602401602060405180830381865afa15801561062d573d6000803e3d6000fd5b505050506040513d601f19601f820116820180604052508101906106519190611bca565b6001600160a01b0316146106a75760405162461bcd60e51b815260206004820152601860248201527f4e6f74206f776e6572206f6620696e766f696365204e465400000000000000006044820152606401610220565b60025460405163484d384560e11b8152600481018490526001600160a01b039091169063909a708a90602401600060405180830381865afa1580156106f0573d6000803e3d6000fd5b505050506040513d6000823e601f3d908101601f191682016040526107189190810190611cea565b60a0015161075f5760405162461bcd60e51b8152602060048201526014602482015273125b9d9bda58d9481b9bdd081d995c9a599a595960621b6044820152606401610220565b60025460405163484d384560e11b8152600481018490526001600160a01b039091169063909a708a90602401600060405180830381865afa1580156107a8573d6000803e3d6000fd5b505050506040513d6000823e601f3d908101601f191682016040526107d09190810190611cea565b61012001511561081b5760405162461bcd60e51b8152602060048201526016602482015275125b9d9bda58d948185b1c9958591e481b1bd8dad95960521b6044820152606401610220565b60025460405163484d384560e11b8152600481018490526000916001600160a01b03169063909a708a90602401600060405180830381865afa158015610865573d6000803e3d6000fd5b505050506040513d6000823e601f3d908101601f1916820160405261088d9190810190611cea565b905060008160e00151116108e35760405162461bcd60e51b815260206004820152601860248201527f496e76616c696420636f6c6c61746572616c2076616c756500000000000000006044820152606401610220565b60006127106007548360e001516108fa9190611e20565b6109049190611e37565b905060008084116109155781610917565b835b90506009548110156109635760405162461bcd60e51b8152602060048201526015602482015274131bd85b88185b5bdd5b9d081d1bdbc81cdb585b1b605a1b6044820152606401610220565b600a548111156109ad5760405162461bcd60e51b81526020600482015260156024820152744c6f616e20616d6f756e7420746f6f206c6172676560581b6044820152606401610220565b818111156109f45760405162461bcd60e51b81526020600482015260146024820152732637b0b71032bc31b2b2b2399036b0bc10262a2b60611b6044820152606401610220565b600454811115610a465760405162461bcd60e51b815260206004820152601b60248201527f496e73756666696369656e7420706f6f6c206c697175696469747900000000006044820152606401610220565b600254604051633310b26560e01b8152600481018790526001600160a01b0390911690633310b26590602401600060405180830381600087803b158015610a8c57600080fd5b505af1158015610aa0573d6000803e3d6000fd5b5050600c805460009350915082610ab683611e59565b9190505590506040518060e00160405280878152602001336001600160a01b031681526020018381526020016008548152602001428152602001426301e13380610b009190611e72565b815260006020918201819052838152600b825260408082208451815584840151600180830180546001600160a01b0319166001600160a01b0390931692909217909155858301516002830155606086015160038301556080860151600483015560a086015160058084019190915560c0909601516006909201805460ff191692151592909217909155338352600d845290822080549182018155825291812090910183905581549190610bb283611e59565b91905055508160066000828254610bc99190611e72565b925050819055508160046000828254610be29190611e85565b9091555050600354600160a01b900460ff1615610c8957604051600090339084908381818185875af1925050503d8060008114610c3b576040519150601f19603f3d011682016040523d82523d6000602084013e610c40565b606091505b5050905080610c835760405162461bcd60e51b815260206004820152600f60248201526e151c985b9cd9995c8819985a5b1959608a1b6044820152606401610220565b50610ca0565b600354610ca0906001600160a01b03163384611821565b336001600160a01b031686827f3409fbf4cc4650476ca06ba8f21ff05b6877b2d5deb15dde0c8ecbb32caa99fc85604051610cdd91815260200190565b60405180910390a450505050610cf260018055565b5050565b610cfe6117f7565b610d06611885565b60008111610d565760405162461bcd60e51b815260206004820152601d60248201527f416d6f756e74206d7573742062652067726561746572207468616e20300000006044820152606401610220565b600454811115610da85760405162461bcd60e51b815260206004820152601960248201527f496e73756666696369656e7420706f6f6c2062616c616e6365000000000000006044820152606401610220565b8060046000828254610dba9190611e85565b9091555050600354600160a01b900460ff1615610e6157604051600090339083908381818185875af1925050503d8060008114610e13576040519150601f19603f3d011682016040523d82523d6000602084013e610e18565b606091505b5050905080610e5b5760405162461bcd60e51b815260206004820152600f60248201526e151c985b9cd9995c8819985a5b1959608a1b6044820152606401610220565b50610e78565b600354610e78906001600160a01b03163383611821565b610e8160018055565b50565b6000818152600b60209081526040808320815160e0810183528154815260018201546001600160a01b0316938101939093526002810154918301919091526003810154606083015260048101546080830152600581015460a08301526006015460ff1615801560c08301819052610efe57508060a0015142115b9392505050565b610f0d611885565b612710811115610f4e5760405162461bcd60e51b815260206004820152600c60248201526b098a8ac40e8dede40d0d2ced60a31b6044820152606401610220565b60078190556040518181527fc22c5dc25ddae677073d8356f06d810b04e3fb8675eb315081605b2ecf3cd898906020015b60405180910390a150565b610f92611885565b610f9c60006118b2565b565b610fa6611885565b612710811115610ff15760405162461bcd60e51b8152602060048201526016602482015275092dce8cae4cae6e840e4c2e8ca40e8dede40d0d2ced60531b6044820152606401610220565b60088190556040518181527fa90e14be5aa57b910aa6dc16c31ff1b5cda380ae25a793b0d3f74df6131a7d7490602001610f7f565b6000818152600b60209081526040808320815160e0810183528154815260018201546001600160a01b03169381018490526002820154928101929092526003810154606083015260048101546080830152600581015460a08301526006015460ff16151560c0820152906110ac5760405162461bcd60e51b815260040161022090611e98565b8060c00151156110ce5760405162461bcd60e51b815260040161022090611ec5565b60008160800151426110e09190611e85565b905064496cebb80081836060015184604001516110fd9190611e20565b6111079190611e20565b6111119190611e37565b949350505050565b6111216117f7565b6000818152600b6020526040902060018101546001600160a01b03166111595760405162461bcd60e51b815260040161022090611e98565b600681015460ff161561117e5760405162461bcd60e51b815260040161022090611ec5565b60018101546001600160a01b031633146111ce5760405162461bcd60e51b81526020600482015260116024820152702737ba103637b0b7103137b93937bbb2b960791b6044820152606401610220565b60008160040154426111e09190611e85565b9050600064496cebb80082846003015485600201546111ff9190611e20565b6112099190611e20565b6112139190611e37565b905060008184600201546112279190611e72565b600354909150600160a01b900460ff161561132157803410156112835760405162461bcd60e51b8152602060048201526014602482015273125b9cdd59999a58da595b9d081c185e5b595b9d60621b6044820152606401610220565b8034111561131c576000336112988334611e85565b604051600081818185875af1925050503d80600081146112d4576040519150601f19603f3d011682016040523d82523d6000602084013e6112d9565b606091505b505090508061131a5760405162461bcd60e51b815260206004820152600d60248201526c1499599d5b990819985a5b1959609a1b6044820152606401610220565b505b611339565b600354611339906001600160a01b0316333084611902565b6002548454604051630389f69d60e51b81526001600160a01b039092169163713ed3a09161136d9160040190815260200190565b600060405180830381600087803b15801561138757600080fd5b505af115801561139b573d6000803e3d6000fd5b50505060068501805460ff1916600117905550600580549060006113be83611ef2565b91905055508360020154600660008282546113d99190611e85565b9250508190555080600460008282546113f29190611e72565b9091555050604051818152339086907f512d3e65b3e58c2187bb1872aa435dba5bd09c1c03823ba56ab70aac411e4a219060200160405180910390a350505050610e8160018055565b6114436117f7565b6000818152600b6020526040902060018101546001600160a01b031661147b5760405162461bcd60e51b815260040161022090611e98565b600681015460ff16156114a05760405162461bcd60e51b815260040161022090611ec5565b806005015442116114e65760405162461bcd60e51b815260206004820152601060248201526f131bd85b881b9bdd08191d59481e595d60821b6044820152606401610220565b60025481546040516323b872dd60e01b81523060048201819052602482015260448101919091526001600160a01b03909116906323b872dd90606401600060405180830381600087803b15801561153c57600080fd5b505af1158015611550573d6000803e3d6000fd5b50505060068201805460ff19166001179055506005805490600061157383611ef2565b919050555080600201546006600082825461158e9190611e85565b9091555050600181015481546040516001600160a01b039092169184907f93914a0b4344432da0ba6fe7ea61027f13c09b0691a98ad1c87b2df44f960aa290600090a450610e8160018055565b6115e36117f7565b600081116116335760405162461bcd60e51b815260206004820152601d60248201527f416d6f756e74206d7573742062652067726561746572207468616e20300000006044820152606401610220565b600354600160a01b900460ff16156116b1573481146116945760405162461bcd60e51b815260206004820152601e60248201527f416d6f756e74206d69736d617463682077697468206d73672e76616c756500006044820152606401610220565b80600460008282546116a69190611e72565b909155506116e19050565b6003546116c9906001600160a01b0316333084611902565b80600460008282546116db9190611e72565b90915550505b60405181815233907f32173d8e51cec3a6fe484b7a1c3febe760cdf96e03d4cca36a43563a4333e8389060200160405180910390a2610e8160018055565b600d602052816000526040600020818154811061173b57600080fd5b90600052602060002001600091509150505481565b6001600160a01b0381166000908152600d60209081526040918290208054835181840281018401909452808452606093928301828280156117b057602002820191906000526020600020905b81548152602001906001019080831161179c575b50505050509050919050565b6117c4611885565b6001600160a01b0381166117ee57604051631e4fbdf760e01b815260006004820152602401610220565b610e81816118b2565b60026001540361181a57604051633ee5aeb560e01b815260040160405180910390fd5b6002600155565b6040516001600160a01b0383811660248301526044820183905261188091859182169063a9059cbb906064015b604051602081830303815290604052915060e01b6020820180516001600160e01b038381831617835250505050611941565b505050565b6000546001600160a01b03163314610f9c5760405163118cdaa760e01b8152336004820152602401610220565b600080546001600160a01b038381166001600160a01b0319831681178455604051919092169283917f8be0079c531659141344cd1fd0a4f28419497f9722a3daafe3b4186f6b6457e09190a35050565b6040516001600160a01b03848116602483015283811660448301526064820183905261193b9186918216906323b872dd9060840161184e565b50505050565b60006119566001600160a01b038416836119a4565b9050805160001415801561197b5750808060200190518101906119799190611f09565b155b1561188057604051635274afe760e01b81526001600160a01b0384166004820152602401610220565b60606119b2838360006119bb565b90505b92915050565b6060814710156119e05760405163cd78605960e01b8152306004820152602401610220565b600080856001600160a01b031684866040516119fc9190611f24565b60006040518083038185875af1925050503d8060008114611a39576040519150601f19603f3d011682016040523d82523d6000602084013e611a3e565b606091505b5091509150611a4e868383611a58565b9695505050505050565b606082611a6d57611a6882611ab4565b610efe565b8151158015611a8457506001600160a01b0384163b155b15611aad57604051639996b31560e01b81526001600160a01b0385166004820152602401610220565b5080610efe565b805115611ac45780518082602001fd5b604051630a12f52160e11b815260040160405180910390fd5b60008060408385031215611af057600080fd5b50508035926020909101359150565b600060208284031215611b1157600080fd5b5035919050565b6001600160a01b0381168114610e8157600080fd5b60008060408385031215611b4057600080fd5b8235611b4b81611b18565b946020939093013593505050565b600060208284031215611b6b57600080fd5b8135610efe81611b18565b6020808252825182820181905260009190848201906040850190845b81811015611bae57835183529284019291840191600101611b92565b50909695505050505050565b8051611bc581611b18565b919050565b600060208284031215611bdc57600080fd5b8151610efe81611b18565b634e487b7160e01b600052604160045260246000fd5b604051610140810167ffffffffffffffff81118282101715611c2157611c21611be7565b60405290565b60005b83811015611c42578181015183820152602001611c2a565b50506000910152565b600082601f830112611c5c57600080fd5b815167ffffffffffffffff80821115611c7757611c77611be7565b604051601f8301601f19908116603f01168101908282118183101715611c9f57611c9f611be7565b81604052838152866020858801011115611cb857600080fd5b611a4e846020830160208901611c27565b80518015158114611bc557600080fd5b805160ff81168114611bc557600080fd5b600060208284031215611cfc57600080fd5b815167ffffffffffffffff80821115611d1457600080fd5b908301906101408286031215611d2957600080fd5b611d31611bfd565b8251815260208301516020820152604083015182811115611d5157600080fd5b611d5d87828601611c4b565b604083015250606083015182811115611d7557600080fd5b611d8187828601611c4b565b606083015250608083015182811115611d9957600080fd5b611da587828601611c4b565b608083015250611db760a08401611cc9565b60a0820152611dc860c08401611cd9565b60c082015260e083015160e08201526101009150611de7828401611bba565b828201526101209150611dfb828401611cc9565b91810191909152949350505050565b634e487b7160e01b600052601160045260246000fd5b80820281158282048414176119b5576119b5611e0a565b600082611e5457634e487b7160e01b600052601260045260246000fd5b500490565b600060018201611e6b57611e6b611e0a565b5060010190565b808201808211156119b5576119b5611e0a565b818103818111156119b5576119b5611e0a565b602080825260139082015272131bd85b88191bd95cc81b9bdd08195e1a5cdd606a1b604082015260600190565b602080825260139082015272131bd85b88185b1c9958591e481c995c185a59606a1b604082015260600190565b600081611f0157611f01611e0a565b506000190190565b600060208284031215611f1b57600080fd5b6119b282611cc9565b60008251611f36818460208701611c27565b919091019291505056fea26469706673582212206d0a5a2759893d777de6cb9cea4059151ba611fd8de860781e3576ddd77d017464736f6c63430008140033",
  "devdoc": {
    "errors": {
      "AddressEmptyCode(address)": [
        {
          "details": "There's no code at `target` (it is not a contract)."
        }
      ],
      "AddressInsufficientBalance(address)": [
        {
          "details": "The ETH balance of the account is not enough to perform the operation."
        }
      ],
      "FailedInnerCall()": [
        {
          "details": "A call to an address target failed. The target may have reverted."
        }
      ],
      "OwnableInvalidOwner(address)": [
        {
          "details": "The owner is not a valid owner account. (eg. `address(0)`)"
        }
      ],
      "OwnableUnauthorizedAccount(address)": [
        {
          "details": "The caller account is not authorized to perform an operation."
        }
      ],
      "ReentrancyGuardReentrantCall()": [
        {
          "details": "Unauthorized reentrant call."
        }
      ],
      "SafeERC20FailedOperation(address)": [
        {
          "details": "An operation with an ERC20 token failed."
        }
      ]
    },
    "kind": "dev",
    "methods": {
      "owner()": {
        "details": "Returns the address of the current owner."
      },
      "renounceOwnership()": {
        "details": "Leaves the contract without owner. It will not be possible to call `onlyOwner` functions. Can only be called by the current owner. NOTE: Renouncing ownership will leave the contract without an owner, thereby disabling any functionality that is only available to the owner."
      },
      "transferOwnership(address)": {
        "details": "Transfers ownership of the contract to a new account (`newOwner`). Can only be called by the current owner."
      }
    },
    "version": 1
  },
  "userdoc": {
    "kind": "user",
    "methods": {},
    "version": 1
  },
  "storageLayout": {
    "storage": [
      {
        "astId": 8,
        "contract": "contracts/InvoiceLendingPool.sol:InvoiceLendingPool",
        "label": "_owner",
        "offset": 0,
        "slot": "0",
        "type": "t_address"
      },
      {
        "astId": 2570,
        "contract": "contracts/InvoiceLendingPool.sol:InvoiceLendingPool",
        "label": "_status",
        "offset": 0,
        "slot": "1",
        "type": "t_uint256"
      },
      {
        "astId": 4096,
        "contract": "contracts/InvoiceLendingPool.sol:InvoiceLendingPool",
        "label": "invoiceNFT",
        "offset": 0,
        "slot": "2",
        "type": "t_contract(InvoiceNFT)5559"
      },
      {
        "astId": 4099,
        "contract": "contracts/InvoiceLendingPool.sol:InvoiceLendingPool",
        "label": "lendingToken",
        "offset": 0,
        "slot": "3",
        "type": "t_contract(IERC20)362"
      },
      {
        "astId": 4101,
        "contract": "contracts/InvoiceLendingPool.sol:InvoiceLendingPool",
        "label": "isLendingTokenMATIC",
        "offset": 20,
        "slot": "3",
        "type": "t_bool"
      },
      {
        "astId": 4106,
        "contract": "contracts/InvoiceLendingPool.sol:InvoiceLendingPool",
        "label": "lendingPoolBalance",
        "offset": 0,
        "slot": "4",
        "type": "t_uint256"
      },
      {
        "astId": 4108,
        "contract": "contracts/InvoiceLendingPool.sol:InvoiceLendingPool",
        "label": "activeLoans",
        "offset": 0,
        "slot": "5",
        "type": "t_uint256"
      },
      {
        "astId": 4110,
        "contract": "contracts/InvoiceLendingPool.sol:InvoiceLendingPool",
        "label": "totalBorrowed",
        "offset": 0,
        "slot": "6",
        "type": "t_uint256"
      },
      {
        "astId": 4112,
        "contract": "contracts/InvoiceLendingPool.sol:InvoiceLendingPool",
        "label": "baseLTV",
        "offset": 0,
        "slot": "7",
        "type": "t_uint256"
      },
      {
        "astId": 4114,
        "contract": "contracts/InvoiceLendingPool.sol:InvoiceLendingPool",
        "label": "baseInterestRate",
        "offset": 0,
        "slot": "8",
        "type": "t_uint256"
      },
      {
        "astId": 4116,
        "contract": "contracts/InvoiceLendingPool.sol:InvoiceLendingPool",
        "label": "minLoanAmount",
        "offset": 0,
        "slot": "9",
        "type": "t_uint256"
      },
      {
        "astId": 4118,
        "contract": "contracts/InvoiceLendingPool.sol:InvoiceLendingPool",
        "label": "maxLoanAmount",
        "offset": 0,
        "slot": "10",
        "type": "t_uint256"
      },
      {
        "astId": 4138,
        "contract": "contracts/InvoiceLendingPool.sol:InvoiceLendingPool",
        "label": "loans",
        "offset": 0,
        "slot": "11",
        "type": "t_mapping(t_uint256,t_struct(Loan)4133_storage)"
      },
      {
        "astId": 4140,
        "contract": "contracts/InvoiceLendingPool.sol:InvoiceLendingPool",
        "label": "loanCounter",
        "offset": 0,
        "slot": "12",
        "type": "t_uint256"
      },
      {
        "astId": 4145,
        "contract": "contracts/InvoiceLendingPool.sol:InvoiceLendingPool",
        "label": "borrowerLoans",
        "offset": 0,
        "slot": "13",
        "type": "t_mapping(t_address,t_array(t_uint256)dyn_storage)"
      }
    ],
    "types": {
      "t_address": {
        "encoding": "inplace",
        "label": "address",
        "numberOfBytes": "20"
      },
      "t_array(t_uint256)dyn_storage": {
        "base": "t_uint256",
        "encoding": "dynamic_array",
        "label": "uint256[]",
        "numberOfBytes": "32"
      },
      "t_bool": {
        "encoding": "inplace",
        "label": "bool",
        "numberOfBytes": "1"
      },
      "t_contract(IERC20)362": {
        "encoding": "inplace",
        "label": "contract IERC20",
        "numberOfBytes": "20"
      },
      "t_contract(InvoiceNFT)5559": {
        "encoding": "inplace",
        "label": "contract InvoiceNFT",
        "numberOfBytes": "20"
      },
      "t_mapping(t_address,t_array(t_uint256)dyn_storage)": {
        "encoding": "mapping",
        "key": "t_address",
        "label": "mapping(address => uint256[])",
        "numberOfBytes": "32",
        "value": "t_array(t_uint256)dyn_storage"
      },
      "t_mapping(t_uint256,t_struct(Loan)4133_storage)": {
        "encoding": "mapping",
        "key": "t_uint256",
        "label": "mapping(uint256 => struct InvoiceLendingPool.Loan)",
        "numberOfBytes": "32",
        "value": "t_struct(Loan)4133_storage"
      },
      "t_struct(Loan)4133_storage": {
        "encoding": "inplace",
        "label": "struct InvoiceLendingPool.Loan",
        "members": [
          {
            "astId": 4120,
            "contract": "contracts/InvoiceLendingPool.sol:InvoiceLendingPool",
            "label": "invoiceTokenId",
            "offset": 0,
            "slot": "0",
            "type": "t_uint256"
          },
          {
            "astId": 4122,
            "contract": "contracts/InvoiceLendingPool.sol:InvoiceLendingPool",
            "label": "borrower",
            "offset": 0,
            "slot": "1",
            "type": "t_address"
          },
          {
            "astId": 4124,
            "contract": "contracts/InvoiceLendingPool.sol:InvoiceLendingPool",
            "label": "borrowedAmount",
            "offset": 0,
            "slot": "2",
            "type": "t_uint256"
          },
          {
            "astId": 4126,
            "contract": "contracts/InvoiceLendingPool.sol:InvoiceLendingPool",
            "label": "interestRate",
            "offset": 0,
            "slot": "3",
            "type": "t_uint256"
          },
          {
            "astId": 4128,
            "contract": "contracts/InvoiceLendingPool.sol:InvoiceLendingPool",
            "label": "startTime",
            "offset": 0,
            "slot": "4",
            "type": "t_uint256"
          },
          {
            "astId": 4130,
            "contract": "contracts/InvoiceLendingPool.sol:InvoiceLendingPool",
            "label": "dueDate",
            "offset": 0,
            "slot": "5",
            "type": "t_uint256"
          },
          {
            "astId": 4132,
            "contract": "contracts/InvoiceLendingPool.sol:InvoiceLendingPool",
            "label": "repaid",
            "offset": 0,
            "slot": "6",
            "type": "t_bool"
          }
        ],
        "numberOfBytes": "224"
      },
      "t_uint256": {
        "encoding": "inplace",
        "label": "uint256",
        "numberOfBytes": "32"
      }
    }
  }
}