{
  "address": "0xB202C1E153984028594b0d8217E218C25dFe178e",
  "abi": [
    {
      "inputs": [
        {
          "internalType": "address",
          "name": "initialOwner",
          "type": "address"
        }
      ],
      "stateMutability": "nonpayable",
      "type": "constructor"
    },
    {
      "inputs": [],
      "name": "ERC721EnumerableForbiddenBatchMint",
      "type": "error"
    },
    {
      "inputs": [
        {
          "internalType": "address",
          "name": "sender",
          "type": "address"
        },
        {
          "internalType": "uint256",
          "name": "tokenId",
          "type": "uint256"
        },
        {
          "internalType": "address",
          "name": "owner",
          "type": "address"
        }
      ],
      "name": "ERC721IncorrectOwner",
      "type": "error"
    },
    {
      "inputs": [
        {
          "internalType": "address",
          "name": "operator",
          "type": "address"
        },
        {
          "internalType": "uint256",
          "name": "tokenId",
          "type": "uint256"
        }
      ],
      "name": "ERC721InsufficientApproval",
      "type": "error"
    },
    {
      "inputs": [
        {
          "internalType": "address",
          "name": "approver",
          "type": "address"
        }
      ],
      "name": "ERC721InvalidApprover",
      "type": "error"
    },
    {
      "inputs": [
        {
          "internalType": "address",
          "name": "operator",
          "type": "address"
        }
      ],
      "name": "ERC721InvalidOperator",
      "type": "error"
    },
    {
      "inputs": [
        {
          "internalType": "address",
          "name": "owner",
          "type": "address"
        }
      ],
      "name": "ERC721InvalidOwner",
      "type": "error"
    },
    {
      "inputs": [
        {
          "internalType": "address",
          "name": "receiver",
          "type": "address"
        }
      ],
      "name": "ERC721InvalidReceiver",
      "type": "error"
    },
    {
      "inputs": [
        {
          "internalType": "address",
          "name": "sender",
          "type": "address"
        }
      ],
      "name": "ERC721InvalidSender",
      "type": "error"
    },
    {
      "inputs": [
        {
          "internalType": "uint256",
          "name": "tokenId",
          "type": "uint256"
        }
      ],
      "name": "ERC721NonexistentToken",
      "type": "error"
    },
    {
      "inputs": [
        {
          "internalType": "address",
          "name": "owner",
          "type": "address"
        },
        {
          "internalType": "uint256",
          "name": "index",
          "type": "uint256"
        }
      ],
      "name": "ERC721OutOfBoundsIndex",
      "type": "error"
    },
    {
      "inputs": [
        {
          "internalType": "address",
          "name": "owner",
          "type": "address"
        }
      ],
      "name": "OwnableInvalidOwner",
      "type": "error"
    },
    {
      "inputs": [
        {
          "internalType": "address",
          "name": "account",
          "type": "address"
        }
      ],
      "name": "OwnableUnauthorizedAccount",
      "type": "error"
    },
    {
      "inputs": [],
      "name": "ReentrancyGuardReentrantCall",
      "type": "error"
    },
    {
      "anonymous": false,
      "inputs": [
        {
          "indexed": true,
          "internalType": "address",
          "name": "owner",
          "type": "address"
        },
        {
          "indexed": true,
          "internalType": "address",
          "name": "approved",
          "type": "address"
        },
        {
          "indexed": true,
          "internalType": "uint256",
          "name": "tokenId",
          "type": "uint256"
        }
      ],
      "name": "Approval",
      "type": "event"
    },
    {
      "anonymous": false,
      "inputs": [
        {
          "indexed": true,
          "internalType": "address",
          "name": "owner",
          "type": "address"
        },
        {
          "indexed": true,
          "internalType": "address",
          "name": "operator",
          "type": "address"
        },
        {
          "indexed": false,
          "internalType": "bool",
          "name": "approved",
          "type": "bool"
        }
      ],
      "name": "ApprovalForAll",
      "type": "event"
    },
    {
      "anonymous": false,
      "inputs": [
        {
          "indexed": true,
          "internalType": "address",
          "name": "locker",
          "type": "address"
        },
        {
          "indexed": false,
          "internalType": "bool",
          "name": "authorized",
          "type": "bool"
        }
      ],
      "name": "AuthorizationUpdated",
      "type": "event"
    },
    {
      "anonymous": false,
      "inputs": [
        {
          "indexed": true,
          "internalType": "uint256",
          "name": "tokenId",
          "type": "uint256"
        }
      ],
      "name": "InvoiceLocked",
      "type": "event"
    },
    {
      "anonymous": false,
      "inputs": [
        {
          "indexed": true,
          "internalType": "uint256",
          "name": "tokenId",
          "type": "uint256"
        },
        {
          "indexed": true,
          "internalType": "address",
          "name": "borrower",
          "type": "address"
        },
        {
          "indexed": false,
          "internalType": "uint256",
          "name": "amount",
          "type": "uint256"
        },
        {
          "indexed": false,
          "internalType": "uint256",
          "name": "dueDate",
          "type": "uint256"
        },
        {
          "indexed": false,
          "internalType": "string",
          "name": "ipfsHash",
          "type": "string"
        }
      ],
      "name": "InvoiceMinted",
      "type": "event"
    },
    {
      "anonymous": false,
      "inputs": [
        {
          "indexed": true,
          "internalType": "uint256",
          "name": "tokenId",
          "type": "uint256"
        }
      ],
      "name": "InvoiceUnlocked",
      "type": "event"
    },
    {
      "anonymous": false,
      "inputs": [
        {
          "indexed": true,
          "internalType": "uint256",
          "name": "tokenId",
          "type": "uint256"
        },
        {
          "indexed": false,
          "internalType": "bool",
          "name": "verified",
          "type": "bool"
        },
        {
          "indexed": false,
          "internalType": "uint8",
          "name": "fraudScore",
          "type": "uint8"
        }
      ],
      "name": "InvoiceVerified",
      "type": "event"
    },
    {
      "anonymous": false,
      "inputs": [
        {
          "indexed": true,
          "internalType": "address",
          "name": "previousOwner",
          "type": "address"
        },
        {
          "indexed": true,
          "internalType": "address",
          "name": "newOwner",
          "type": "address"
        }
      ],
      "name": "OwnershipTransferred",
      "type": "event"
    },
    {
      "anonymous": false,
      "inputs": [
        {
          "indexed": true,
          "internalType": "address",
          "name": "from",
          "type": "address"
        },
        {
          "indexed": true,
          "internalType": "address",
          "name": "to",
          "type": "address"
        },
        {
          "indexed": true,
          "internalType": "uint256",
          "name": "tokenId",
          "type": "uint256"
        }
      ],
      "name": "Transfer",
      "type": "event"
    },
    {
      "inputs": [
        {
          "internalType": "address",
          "name": "to",
          "type": "address"
        },
        {
          "internalType": "uint256",
          "name": "tokenId",
          "type": "uint256"
        }
      ],
      "name": "approve",
      "outputs": [],
      "stateMutability": "nonpayable",
      "type": "function"
    },
    {
      "inputs": [
        {
          "internalType": "address",
          "name": "locker",
          "type": "address"
        },
        {
          "internalType": "bool",
          "name": "authorized",
          "type": "bool"
        }
      ],
      "name": "authorizeLocker",
      "outputs": [],
      "stateMutability": "nonpayable",
      "type": "function"
    },
    {
      "inputs": [
        {
          "internalType": "address",
          "name": "",
          "type": "address"
        }
      ],
      "name": "authorizedLockers",
      "outputs": [
        {
          "internalType": "bool",
          "name": "",
          "type": "bool"
        }
      ],
      "stateMutability": "view",
      "type": "function"
    },
    {
      "inputs": [
        {
          "internalType": "address",
          "name": "owner",
          "type": "address"
        }
      ],
      "name": "balanceOf",
      "outputs": [
        {
          "internalType": "uint256",
          "name": "",
          "type": "uint256"
        }
      ],
      "stateMutability": "view",
      "type": "function"
    },
    {
      "inputs": [
        {
          "internalType": "uint256",
          "name": "tokenId",
          "type": "uint256"
        }
      ],
      "name": "getApproved",
      "outputs": [
        {
          "internalType": "address",
          "name": "",
          "type": "address"
        }
      ],
      "stateMutability": "view",
      "type": "function"
    },
    {
      "inputs": [
        {
          "internalType": "uint256",
          "name": "tokenId",
          "type": "uint256"
        }
      ],
      "name": "getInvoiceDetails",
      "outputs": [
        {
          "components": [
            {
              "internalType": "uint256",
              "name": "amount",
              "type": "uint256"
            },
            {
              "internalType": "uint256",
              "name": "dueDate",
              "type": "uint256"
            },
            {
              "internalType": "string",
              "name": "issuer",
              "type": "string"
            },
            {
              "internalType": "string",
              "name": "recipient",
              "type": "string"
            },
            {
              "internalType": "string",
              "name": "ipfsHash",
              "type": "string"
            },
            {
              "internalType": "bool",
              "name": "verified",
              "type": "bool"
            },
            {
              "internalType": "uint8",
              "name": "fraudScore",
              "type": "uint8"
            },
            {
              "internalType": "uint256",
              "name": "collateralValue",
              "type": "uint256"
            },
            {
              "internalType": "address",
              "name": "borrower",
              "type": "address"
            },
            {
              "internalType": "bool",
              "name": "locked",
              "type": "bool"
            }
          ],
          "internalType": "struct InvoiceInfo",
          "name": "",
          "type": "tuple"
        }
      ],
      "stateMutability": "view",
      "type": "function"
    },
    {
      "inputs": [
        {
          "internalType": "string",
          "name": "",
          "type": "string"
        }
      ],
      "name": "invoiceHashes",
      "outputs": [
        {
          "internalType": "bool",
          "name": "",
          "type": "bool"
        }
      ],
      "stateMutability": "view",
      "type": "function"
    },
    {
      "inputs": [
        {
          "internalType": "uint256",
          "name": "",
          "type": "uint256"
        }
      ],
      "name": "invoiceInfo",
      "outputs": [
        {
          "internalType": "uint256",
          "name": "amount",
          "type": "uint256"
        },
        {
          "internalType": "uint256",
          "name": "dueDate",
          "type": "uint256"
        },
        {
          "internalType": "string",
          "name": "issuer",
          "type": "string"
        },
        {
          "internalType": "string",
          "name": "recipient",
          "type": "string"
        },
        {
          "internalType": "string",
          "name": "ipfsHash",
          "type": "string"
        },
        {
          "internalType": "bool",
          "name": "verified",
          "type": "bool"
        },
        {
          "internalType": "uint8",
          "name": "fraudScore",
          "type": "uint8"
        },
        {
          "internalType": "uint256",
          "name": "collateralValue",
          "type": "uint256"
        },
        {
          "internalType": "address",
          "name": "borrower",
          "type": "address"
        },
        {
          "internalType": "bool",
          "name": "locked",
          "type": "bool"
        }
      ],
      "stateMutability": "view",
      "type": "function"
    },
    {
      "inputs": [
        {
          "internalType": "address",
          "name": "owner",
          "type": "address"
        },
        {
          "internalType": "address",
          "name": "operator",
          "type": "address"
        }
      ],
      "name": "isApprovedForAll",
      "outputs": [
        {
          "internalType": "bool",
          "name": "",
          "type": "bool"
        }
      ],
      "stateMutability": "view",
      "type": "function"
    },
    {
      "inputs": [
        {
          "internalType": "uint256",
          "name": "tokenId",
          "type": "uint256"
        }
      ],
      "name": "lockInvoice",
      "outputs": [],
      "stateMutability": "nonpayable",
      "type": "function"
    },
    {
      "inputs": [
        {
          "internalType": "uint256",
          "name": "amount",
          "type": "uint256"
        },
        {
          "internalType": "uint256",
          "name": "dueDate",
          "type": "uint256"
        },
        {
          "internalType": "string",
          "name": "issuer",
          "type": "string"
        },
        {
          "internalType": "string",
          "name": "recipient",
          "type": "string"
        },
        {
          "internalType": "string",
          "name": "ipfsHash",
          "type": "string"
        }
      ],
      "name": "mintInvoice",
      "outputs": [
        {
          "internalType": "uint256",
          "name": "",
          "type": "uint256"
        }
      ],
      "stateMutability": "nonpayable",
      "type": "function"
    },
    {
      "inputs": [
        {
          "internalType": "address",
          "name": "to",
          "type": "address"
        },
        {
          "internalType": "uint256",
          "name": "amount",
          "type": "uint256"
        },
        {
          "internalType": "uint256",
          "name": "dueDate",
          "type": "uint256"
        },
        {
          "internalType": "string",
          "name": "issuer",
          "type": "string"
        },
        {
          "internalType": "string",
          "name": "recipient",
          "type": "string"
        },
        {
          "internalType": "string",
          "name": "ipfsHash",
          "type": "string"
        }
      ],
      "name": "mintInvoiceFor",
      "outputs": [
        {
          "internalType": "uint256",
          "name": "",
          "type": "uint256"
        }
      ],
      "stateMutability": "nonpayable",
      "type": "function"
    },
    {
      "inputs": [],
      "name": "name",
      "outputs": [
        {
          "internalType": "string",
          "name": "",
          "type": "string"
        }
      ],
      "stateMutability": "view",
      "type": "function"
    },
    {
      "inputs": [],
      "name": "owner",
      "outputs": [
        {
          "internalType": "address",
          "name": "",
          "type": "address"
        }
      ],
      "stateMutability": "view",
      "type": "function"
    },
    {
      "inputs": [
        {
          "internalType": "uint256",
          "name": "tokenId",
          "type": "uint256"
        }
      ],
      "name": "ownerOf",
      "outputs": [
        {
          "internalType": "address",
          "name": "",
          "type": "address"
        }
      ],
      "stateMutability": "view",
      "type": "function"
    },
    {
      "inputs": [],
      "name": "renounceOwnership",
      "outputs": [],
      "stateMutability": "nonpayable",
      "type": "function"
    },
    {
      "inputs": [
        {
          "internalType": "address",
          "name": "from",
          "type": "address"
        },
        {
          "internalType": "address",
          "name": "to",
          "type": "address"
        },
        {
          "internalType": "uint256",
          "name": "tokenId",
          "type": "uint256"
        }
      ],
      "name": "safeTransferFrom",
      "outputs": [],
      "stateMutability": "nonpayable",
      "type": "function"
    },
    {
      "inputs": [
        {
          "internalType": "address",
          "name": "from",
          "type": "address"
        },
        {
          "internalType": "address",
          "name": "to",
          "type": "address"
        },
        {
          "internalType": "uint256",
          "name": "tokenId",
          "type": "uint256"
        },
        {
          "internalType": "bytes",
          "name": "data",
          "type": "bytes"
        }
      ],
      "name": "safeTransferFrom",
      "outputs": [],
      "stateMutability": "nonpayable",
      "type": "function"
    },
    {
      "inputs": [
        {
          "internalType": "address",
          "name": "operator",
          "type": "address"
        },
        {
          "internalType": "bool",
          "name": "approved",
          "type": "bool"
        }
      ],
      "name": "setApprovalForAll",
      "outputs": [],
      "stateMutability": "nonpayable",
      "type": "function"
    },
    {
      "inputs": [
        {
          "internalType": "bytes4",
          "name": "interfaceId",
          "type": "bytes4"
        }
      ],
      "name": "supportsInterface",
      "outputs": [
        {
          "internalType": "bool",
          "name": "",
          "type": "bool"
        }
      ],
      "stateMutability": "view",
      "type": "function"
    },
    {
      "inputs": [],
      "name": "symbol",
      "outputs": [
        {
          "internalType": "string",
          "name": "",
          "type": "string"
        }
      ],
      "stateMutability": "view",
      "type": "function"
    },
    {
      "inputs": [
        {
          "internalType": "uint256",
          "name": "index",
          "type": "uint256"
        }
      ],
      "name": "tokenByIndex",
      "outputs": [
        {
          "internalType": "uint256",
          "name": "",
          "type": "uint256"
        }
      ],
      "stateMutability": "view",
      "type": "function"
    },
    {
      "inputs": [
        {
          "internalType": "address",
          "name": "owner",
          "type": "address"
        },
        {
          "internalType": "uint256",
          "name": "index",
          "type": "uint256"
        }
      ],
      "name": "tokenOfOwnerByIndex",
      "outputs": [
        {
          "internalType": "uint256",
          "name": "",
          "type": "uint256"
        }
      ],
      "stateMutability": "view",
      "type": "function"
    },
    {
      "inputs": [
        {
          "internalType": "uint256",
          "name": "tokenId",
          "type": "uint256"
        }
      ],
      "name": "tokenURI",
      "outputs": [
        {
          "internalType": "string",
          "name": "",
          "type": "string"
        }
      ],
      "stateMutability": "view",
      "type": "function"
    },
    {
      "inputs": [],
      "name": "totalSupply",
      "outputs": [
        {
          "internalType": "uint256",
          "name": "",
          "type": "uint256"
        }
      ],
      "stateMutability": "view",
      "type": "function"
    },
    {
      "inputs": [
        {
          "internalType": "address",
          "name": "from",
          "type": "address"
        },
        {
          "internalType": "address",
          "name": "to",
          "type": "address"
        },
        {
          "internalType": "uint256",
          "name": "tokenId",
          "type": "uint256"
        }
      ],
      "name": "transferFrom",
      "outputs": [],
      "stateMutability": "nonpayable",
      "type": "function"
    },
    {
      "inputs": [
        {
          "internalType": "address",
          "name": "newOwner",
          "type": "address"
        }
      ],
      "name": "transferOwnership",
      "outputs": [],
      "stateMutability": "nonpayable",
      "type": "function"
    },
    {
      "inputs": [
        {
          "internalType": "uint256",
          "name": "tokenId",
          "type": "uint256"
        }
      ],
      "name": "unlockInvoice",
      "outputs": [],
      "stateMutability": "nonpayable",
      "type": "function"
    },
    {
      "inputs": [
        {
          "internalType": "uint256",
          "name": "tokenId",
          "type": "uint256"
        },
        {
          "internalType": "bool",
          "name": "verifiedStatus",
          "type": "bool"
        },
        {
          "internalType": "uint8",
          "name": "fraudScore",
          "type": "uint8"
        }
      ],
      "name": "verifyInvoice",
      "outputs": [],
      "stateMutability": "nonpayable",
      "type": "function"
    }
  ],
  "transactionHash": "0x631aa10ef59786ef3ca06000a7ae3c61dd4d2ca23e68ab4e3df230a5236310b8",
  "args": [
    "0xBc578e487B2AebD4576eBb8a7E4E6B83c68Afc30"
  ],
  "numDeployments": 1,
  "solcInputHash": "d5dac6d03b1acef46706edc9642b5c43",
  "bytecode": "0x60806040523480156200001157600080fd5b5060405162002ca238038062002ca2833981016040819052620000349162000135565b806040518060400160405280600f81526020016e125b9d9bda58d9519b1bddc8139195608a1b8152506040518060400160405280600381526020016224a72b60e91b81525081600090816200008a91906200020c565b5060016200009982826200020c565b5050506001600160a01b038116620000cb57604051631e4fbdf760e01b81526000600482015260240160405180910390fd5b620000d681620000e3565b50506001600b55620002d8565b600a80546001600160a01b038381166001600160a01b0319831681179093556040519116919082907f8be0079c531659141344cd1fd0a4f28419497f9722a3daafe3b4186f6b6457e090600090a35050565b6000602082840312156200014857600080fd5b81516001600160a01b03811681146200016057600080fd5b9392505050565b634e487b7160e01b600052604160045260246000fd5b600181811c908216806200019257607f821691505b602082108103620001b357634e487b7160e01b600052602260045260246000fd5b50919050565b601f8211156200020757600081815260208120601f850160051c81016020861015620001e25750805b601f850160051c820191505b818110156200020357828155600101620001ee565b5050505b505050565b81516001600160401b0381111562000228576200022862000167565b62000240816200023984546200017d565b84620001b9565b602080601f8311600181146200027857600084156200025f5750858301515b600019600386901b1c1916600185901b17855562000203565b600085815260208120601f198616915b82811015620002a95788860151825594840194600190910190840162000288565b5085821015620002c85787850151600019600388901b60f8161c191681555b5050505050600190811b01905550565b6129ba80620002e86000396000f3fe608060405234801561001057600080fd5b50600436106101cf5760003560e01c8063713ed3a011610104578063b88d4fde116100a2578063e985e9c511610071578063e985e9c514610415578063f2fde38b14610428578063f5ae36de1461043b578063fe865bf91461044e57600080fd5b8063b88d4fde1461039e578063c2c4cfd6146103b1578063c87b56dd146103df578063e080fda7146103f257600080fd5b8063909a708a116100de578063909a708a1461035057806395d89b41146103705780639e6203e714610378578063a22cb4651461038b57600080fd5b8063713ed3a014610324578063715018a6146103375780638da5cb5b1461033f57600080fd5b80632f745c59116101715780634f6ccce71161014b5780634f6ccce7146102d85780636352211e146102eb5780636634881f146102fe57806370a082311461031157600080fd5b80632f745c591461029f5780633310b265146102b257806342842e0e146102c557600080fd5b8063095ea7b3116101ad578063095ea7b31461023c57806318160ddd1461025157806323b872dd146102635780632d8bb0311461027657600080fd5b806301ffc9a7146101d457806306fdde03146101fc578063081812fc14610211575b600080fd5b6101e76101e236600461204a565b610461565b60405190151581526020015b60405180910390f35b610204610472565b6040516101f391906120be565b61022461021f3660046120d1565b610504565b6040516001600160a01b0390911681526020016101f3565b61024f61024a366004612106565b61052d565b005b6008545b6040519081526020016101f3565b61024f610271366004612130565b61053c565b6102896102843660046120d1565b6105cc565b6040516101f39a9998979695949392919061216c565b6102556102ad366004612106565b6107c7565b61024f6102c03660046120d1565b61082c565b61024f6102d3366004612130565b610978565b6102556102e63660046120d1565b610998565b6102246102f93660046120d1565b6109f1565b61025561030c36600461229e565b6109fc565b61025561031f36600461233a565b610c92565b61024f6103323660046120d1565b610cda565b61024f610e22565b600a546001600160a01b0316610224565b61036361035e3660046120d1565b610e36565b6040516101f39190612355565b610204611131565b61024f610386366004612435565b611140565b61024f61039936600461247b565b61127c565b61024f6103ac3660046124ae565b611287565b6101e76103bf36600461252a565b8051602081830181018051600e8252928201919093012091525460ff1681565b6102046103ed3660046120d1565b61129e565b6101e761040036600461233a565b600f6020526000908152604090205460ff1681565b6101e761042336600461255f565b611360565b61024f61043636600461233a565b61138e565b610255610449366004612589565b6113cc565b61024f61045c36600461247b565b61166b565b600061046c826116d2565b92915050565b60606000805461048190612634565b80601f01602080910402602001604051908101604052809291908181526020018280546104ad90612634565b80156104fa5780601f106104cf576101008083540402835291602001916104fa565b820191906000526020600020905b8154815290600101906020018083116104dd57829003601f168201915b5050505050905090565b600061050f826116f7565b506000828152600460205260409020546001600160a01b031661046c565b610538828233611730565b5050565b6001600160a01b03821661056b57604051633250574960e11b8152600060048201526024015b60405180910390fd5b600061057883833361173d565b9050836001600160a01b0316816001600160a01b0316146105c6576040516364283d7b60e01b81526001600160a01b0380861660048301526024820184905282166044820152606401610562565b50505050565b600d60205260009081526040902080546001820154600283018054929391926105f490612634565b80601f016020809104026020016040519081016040528092919081815260200182805461062090612634565b801561066d5780601f106106425761010080835404028352916020019161066d565b820191906000526020600020905b81548152906001019060200180831161065057829003601f168201915b50505050509080600301805461068290612634565b80601f01602080910402602001604051908101604052809291908181526020018280546106ae90612634565b80156106fb5780601f106106d0576101008083540402835291602001916106fb565b820191906000526020600020905b8154815290600101906020018083116106de57829003601f168201915b50505050509080600401805461071090612634565b80601f016020809104026020016040519081016040528092919081815260200182805461073c90612634565b80156107895780601f1061075e57610100808354040283529160200191610789565b820191906000526020600020905b81548152906001019060200180831161076c57829003601f168201915b50505060058401546006850154600790950154939460ff80831695610100909304811694509092506001600160a01b03821691600160a01b9004168a565b60006107d283610c92565b82106108035760405163295f44f760e21b81526001600160a01b038416600482015260248101839052604401610562565b506001600160a01b03919091166000908152600660209081526040808320938352929052205490565b6000610837826109f1565b6001600160a01b03160361085d5760405162461bcd60e51b81526004016105629061266e565b6000818152600d6020526040902060070154600160a01b900460ff16156108bf5760405162461bcd60e51b8152602060048201526016602482015275125b9d9bda58d948185b1c9958591e481b1bd8dad95960521b6044820152606401610562565b600a546001600160a01b03163314806108e75750336000908152600f602052604090205460ff165b61092c5760405162461bcd60e51b81526020600482015260166024820152754e6f7420617574686f72697a656420746f206c6f636b60501b6044820152606401610562565b6000818152600d6020526040808220600701805460ff60a01b1916600160a01b1790555182917f1a7e43ebc331561d94db8f6be20f1e1b89a61e0b178ce2a698ecb4554b4c6b4991a250565b61099383838360405180602001604052806000815250611287565b505050565b60006109a360085490565b82106109cc5760405163295f44f760e21b81526000600482015260248101839052604401610562565b600882815481106109df576109df61269e565b90600052602060002001549050919050565b600061046c826116f7565b6000610a066117b2565b81513390610a525760405162461bcd60e51b81526020600482015260196024820152784950465320686173682063616e6e6f7420626520656d70747960381b6044820152606401610562565b600e83604051610a6291906126b4565b9081526040519081900360200190205460ff1615610abb5760405162461bcd60e51b8152602060048201526016602482015275496e766f69636520616c72656164792065786973747360501b6044820152606401610562565b600c80549081906000610acd836126e6565b9091555050604080516101408101825289815260208082018a81528284018a8152606084018a905260808401899052600060a0850181905260c0850181905260e085018190526001600160a01b0388166101008601526101208501819052868152600d9093529390912082518155905160018201559151909182916002820190610b57908261274d565b5060608201516003820190610b6c908261274d565b5060808201516004820190610b81908261274d565b5060a082015160058201805460c085015161ffff1990911692151561ff0019169290921761010060ff909316830217905560e0830151600683015582015160079091018054610120909301516001600160a01b039092166001600160a81b031990931692909217600160a01b91151591909102179055604051600190600e90610c0b9088906126b4565b908152604051908190036020019020805491151560ff19909216919091179055610c3583836117dc565b826001600160a01b0316827fb74a6be41b5cd4404e4e192af658d57e6a3a6b988e910bebc36c1349040e31e38b8b89604051610c739392919061280d565b60405180910390a350915050610c896001600b55565b95945050505050565b60006001600160a01b038216610cbe576040516322718ad960e21b815260006004820152602401610562565b506001600160a01b031660009081526003602052604090205490565b6000610ce5826109f1565b6001600160a01b031603610d0b5760405162461bcd60e51b81526004016105629061266e565b6000818152600d6020526040902060070154600160a01b900460ff16610d685760405162461bcd60e51b8152602060048201526012602482015271125b9d9bda58d9481b9bdd081b1bd8dad95960721b6044820152606401610562565b600a546001600160a01b0316331480610d905750336000908152600f602052604090205460ff165b610ddc5760405162461bcd60e51b815260206004820152601860248201527f4e6f7420617574686f72697a656420746f20756e6c6f636b00000000000000006044820152606401610562565b6000818152600d6020526040808220600701805460ff60a01b191690555182917f4eda08c0f3702d3050c96072747bc7ead257aa70506a92d7c6119ae7a29a89a091a250565b610e2a6117f6565b610e346000611823565b565b610e9c6040518061014001604052806000815260200160008152602001606081526020016060815260200160608152602001600015158152602001600060ff1681526020016000815260200160006001600160a01b031681526020016000151581525090565b6000610ea7836109f1565b6001600160a01b031603610ef45760405162461bcd60e51b8152602060048201526014602482015273151bdad95b88191bd95cc81b9bdd08195e1a5cdd60621b6044820152606401610562565b600d6000838152602001908152602001600020604051806101400160405290816000820154815260200160018201548152602001600282018054610f3790612634565b80601f0160208091040260200160405190810160405280929190818152602001828054610f6390612634565b8015610fb05780601f10610f8557610100808354040283529160200191610fb0565b820191906000526020600020905b815481529060010190602001808311610f9357829003601f168201915b50505050508152602001600382018054610fc990612634565b80601f0160208091040260200160405190810160405280929190818152602001828054610ff590612634565b80156110425780601f1061101757610100808354040283529160200191611042565b820191906000526020600020905b81548152906001019060200180831161102557829003601f168201915b5050505050815260200160048201805461105b90612634565b80601f016020809104026020016040519081016040528092919081815260200182805461108790612634565b80156110d45780601f106110a9576101008083540402835291602001916110d4565b820191906000526020600020905b8154815290600101906020018083116110b757829003601f168201915b5050509183525050600582015460ff8082161515602084015261010090910481166040830152600683015460608301526007909201546001600160a01b0381166080830152600160a01b9004909116151560a09091015292915050565b60606001805461048190612634565b6111486117f6565b6000611153846109f1565b6001600160a01b0316036111795760405162461bcd60e51b81526004016105629061266e565b60648160ff1611156111d75760405162461bcd60e51b815260206004820152602160248201527f46726175642073636f7265206d757374206265206265747765656e20302d31306044820152600360fc1b6064820152608401610562565b6000838152600d6020526040812060058101805461ffff191685151561ff0019161761010060ff8616021790559061121083606461282c565b60ff16905060648183600001546112279190612845565b611231919061285c565b600683015560408051851515815260ff8516602082015286917fd66ab6a107639c85f218e9fd949483aa519a880ec8ffd3f81606052c2ea4d59a910160405180910390a25050505050565b610538338383611875565b61129284848461053c565b6105c684848484611914565b606060006112ab836109f1565b6001600160a01b0316036112f85760405162461bcd60e51b8152602060048201526014602482015273151bdad95b88191bd95cc81b9bdd08195e1a5cdd60621b6044820152606401610562565b604080518082018252601581527468747470733a2f2f697066732e696f2f697066732f60581b6020808301919091526000858152600d8252839020925191926113499284926004909201910161287e565b604051602081830303815290604052915050919050565b6001600160a01b03918216600090815260056020908152604080832093909416825291909152205460ff1690565b6113966117f6565b6001600160a01b0381166113c057604051631e4fbdf760e01b815260006004820152602401610562565b6113c981611823565b50565b60006113d66117f6565b6113de6117b2565b600082511161142b5760405162461bcd60e51b81526020600482015260196024820152784950465320686173682063616e6e6f7420626520656d70747960381b6044820152606401610562565b600e8260405161143b91906126b4565b9081526040519081900360200190205460ff16156114945760405162461bcd60e51b8152602060048201526016602482015275496e766f69636520616c72656164792065786973747360501b6044820152606401610562565b600c805490819060006114a6836126e6565b9091555050604080516101408101825288815260208082018981528284018981526060840189905260808401889052600060a0850181905260c0850181905260e085018190526001600160a01b038e166101008601526101208501819052868152600d9093529390912082518155905160018201559151909182916002820190611530908261274d565b5060608201516003820190611545908261274d565b506080820151600482019061155a908261274d565b5060a082015160058201805460c085015161ffff1990911692151561ff0019169290921761010060ff909316830217905560e0830151600683015582015160079091018054610120909301516001600160a01b039092166001600160a81b031990931692909217600160a01b91151591909102179055604051600190600e906115e49087906126b4565b908152604051908190036020019020805491151560ff1990921691909117905561160e89836117dc565b886001600160a01b0316827fb74a6be41b5cd4404e4e192af658d57e6a3a6b988e910bebc36c1349040e31e38a8a8860405161164c9392919061280d565b60405180910390a35090506116616001600b55565b9695505050505050565b6116736117f6565b6001600160a01b0382166000818152600f6020908152604091829020805460ff191685151590811790915591519182527f2c59b8f31260880424e870332281eba93ddfef67e37d699cebe5a7ba89f7a8a6910160405180910390a25050565b60006001600160e01b0319821663780e9d6360e01b148061046c575061046c82611a3d565b6000818152600260205260408120546001600160a01b03168061046c57604051637e27328960e01b815260048101849052602401610562565b6109938383836001611a8d565b6000828152600d602052604081206007810154600160a01b900460ff16156117a75760405162461bcd60e51b815260206004820152601e60248201527f43616e6e6f74207472616e73666572206c6f636b656420696e766f69636500006044820152606401610562565b610c89858585611b93565b6002600b54036117d557604051633ee5aeb560e01b815260040160405180910390fd5b6002600b55565b610538828260405180602001604052806000815250611c68565b600a546001600160a01b03163314610e345760405163118cdaa760e01b8152336004820152602401610562565b600a80546001600160a01b038381166001600160a01b0319831681179093556040519116919082907f8be0079c531659141344cd1fd0a4f28419497f9722a3daafe3b4186f6b6457e090600090a35050565b6001600160a01b0382166118a757604051630b61174360e31b81526001600160a01b0383166004820152602401610562565b6001600160a01b03838116600081815260056020908152604080832094871680845294825291829020805460ff191686151590811790915591519182527f17307eab39ab6107e8899845ad3d59bd9653f200f220920489ca2b5937696c31910160405180910390a3505050565b6001600160a01b0383163b156105c657604051630a85bd0160e11b81526001600160a01b0384169063150b7a029061195690339088908790879060040161290b565b6020604051808303816000875af1925050508015611991575060408051601f3d908101601f1916820190925261198e9181019061293e565b60015b6119fa573d8080156119bf576040519150601f19603f3d011682016040523d82523d6000602084013e6119c4565b606091505b5080516000036119f257604051633250574960e11b81526001600160a01b0385166004820152602401610562565b805181602001fd5b6001600160e01b03198116630a85bd0160e11b14611a3657604051633250574960e11b81526001600160a01b0385166004820152602401610562565b5050505050565b60006001600160e01b031982166380ac58cd60e01b1480611a6e57506001600160e01b03198216635b5e139f60e01b145b8061046c57506301ffc9a760e01b6001600160e01b031983161461046c565b8080611aa157506001600160a01b03821615155b15611b63576000611ab1846116f7565b90506001600160a01b03831615801590611add5750826001600160a01b0316816001600160a01b031614155b8015611af05750611aee8184611360565b155b15611b195760405163a9fbf51f60e01b81526001600160a01b0384166004820152602401610562565b8115611b615783856001600160a01b0316826001600160a01b03167f8c5be1e5ebec7d5bd14f71427d1e84f3dd0314c0f7b2291e5b200ac8c7c3b92560405160405180910390a45b505b5050600090815260046020526040902080546001600160a01b0319166001600160a01b0392909216919091179055565b600080611ba1858585611c7f565b90506001600160a01b038116611bfe57611bf984600880546000838152600960205260408120829055600182018355919091527ff3f7a9fe364faab93b216da50a3214154f22a0a2b415b23a84c8169e8b636ee30155565b611c21565b846001600160a01b0316816001600160a01b031614611c2157611c218185611d78565b6001600160a01b038516611c3d57611c3884611e09565b611c60565b846001600160a01b0316816001600160a01b031614611c6057611c608585611eb8565b949350505050565b611c728383611f08565b6109936000848484611914565b6000828152600260205260408120546001600160a01b0390811690831615611cac57611cac818486611f6d565b6001600160a01b03811615611cea57611cc9600085600080611a8d565b6001600160a01b038116600090815260036020526040902080546000190190555b6001600160a01b03851615611d19576001600160a01b0385166000908152600360205260409020805460010190555b60008481526002602052604080822080546001600160a01b0319166001600160a01b0389811691821790925591518793918516917fddf252ad1be2c89b69c2b068fc378daa952ba7f163c4a11628f55a4df523b3ef91a4949350505050565b6000611d8383610c92565b600083815260076020526040902054909150808214611dd6576001600160a01b03841660009081526006602090815260408083208584528252808320548484528184208190558352600790915290208190555b5060009182526007602090815260408084208490556001600160a01b039094168352600681528383209183525290812055565b600854600090611e1b9060019061295b565b60008381526009602052604081205460088054939450909284908110611e4357611e4361269e565b906000526020600020015490508060088381548110611e6457611e6461269e565b6000918252602080832090910192909255828152600990915260408082208490558582528120556008805480611e9c57611e9c61296e565b6001900381819060005260206000200160009055905550505050565b60006001611ec584610c92565b611ecf919061295b565b6001600160a01b039093166000908152600660209081526040808320868452825280832085905593825260079052919091209190915550565b6001600160a01b038216611f3257604051633250574960e11b815260006004820152602401610562565b6000611f408383600061173d565b90506001600160a01b03811615610993576040516339e3563760e11b815260006004820152602401610562565b611f78838383611fd1565b610993576001600160a01b038316611fa657604051637e27328960e01b815260048101829052602401610562565b60405163177e802f60e01b81526001600160a01b038316600482015260248101829052604401610562565b60006001600160a01b03831615801590611c605750826001600160a01b0316846001600160a01b0316148061200b575061200b8484611360565b80611c605750506000908152600460205260409020546001600160a01b03908116911614919050565b6001600160e01b0319811681146113c957600080fd5b60006020828403121561205c57600080fd5b813561206781612034565b9392505050565b60005b83811015612089578181015183820152602001612071565b50506000910152565b600081518084526120aa81602086016020860161206e565b601f01601f19169290920160200192915050565b6020815260006120676020830184612092565b6000602082840312156120e357600080fd5b5035919050565b80356001600160a01b038116811461210157600080fd5b919050565b6000806040838503121561211957600080fd5b612122836120ea565b946020939093013593505050565b60008060006060848603121561214557600080fd5b61214e846120ea565b925061215c602085016120ea565b9150604084013590509250925092565b60006101408c83528b602084015280604084015261218c8184018c612092565b905082810360608401526121a0818b612092565b905082810360808401526121b4818a612092565b97151560a0840152505060ff9490941660c085015260e08401929092526001600160a01b031661010083015215156101209091015295945050505050565b634e487b7160e01b600052604160045260246000fd5b600067ffffffffffffffff80841115612223576122236121f2565b604051601f8501601f19908116603f0116810190828211818310171561224b5761224b6121f2565b8160405280935085815286868601111561226457600080fd5b858560208301376000602087830101525050509392505050565b600082601f83011261228f57600080fd5b61206783833560208501612208565b600080600080600060a086880312156122b657600080fd5b8535945060208601359350604086013567ffffffffffffffff808211156122dc57600080fd5b6122e889838a0161227e565b945060608801359150808211156122fe57600080fd5b61230a89838a0161227e565b9350608088013591508082111561232057600080fd5b5061232d8882890161227e565b9150509295509295909350565b60006020828403121561234c57600080fd5b612067826120ea565b60208152815160208201526020820151604082015260006040830151610140806060850152612388610160850183612092565b91506060850151601f19808685030160808701526123a68483612092565b935060808701519150808685030160a0870152506123c48382612092565b92505060a08501516123da60c086018215159052565b5060c085015160ff811660e08601525060e085015161010085810191909152850151610120612413818701836001600160a01b03169052565b90950151151593019290925250919050565b8035801515811461210157600080fd5b60008060006060848603121561244a57600080fd5b8335925061245a60208501612425565b9150604084013560ff8116811461247057600080fd5b809150509250925092565b6000806040838503121561248e57600080fd5b612497836120ea565b91506124a560208401612425565b90509250929050565b600080600080608085870312156124c457600080fd5b6124cd856120ea565b93506124db602086016120ea565b925060408501359150606085013567ffffffffffffffff8111156124fe57600080fd5b8501601f8101871361250f57600080fd5b61251e87823560208401612208565b91505092959194509250565b60006020828403121561253c57600080fd5b813567ffffffffffffffff81111561255357600080fd5b611c608482850161227e565b6000806040838503121561257257600080fd5b61257b836120ea565b91506124a5602084016120ea565b60008060008060008060c087890312156125a257600080fd5b6125ab876120ea565b95506020870135945060408701359350606087013567ffffffffffffffff808211156125d657600080fd5b6125e28a838b0161227e565b945060808901359150808211156125f857600080fd5b6126048a838b0161227e565b935060a089013591508082111561261a57600080fd5b5061262789828a0161227e565b9150509295509295509295565b600181811c9082168061264857607f821691505b60208210810361266857634e487b7160e01b600052602260045260246000fd5b50919050565b602080825260169082015275125b9d9bda58d948191bd95cc81b9bdd08195e1a5cdd60521b604082015260600190565b634e487b7160e01b600052603260045260246000fd5b600082516126c681846020870161206e565b9190910192915050565b634e487b7160e01b600052601160045260246000fd5b6000600182016126f8576126f86126d0565b5060010190565b601f82111561099357600081815260208120601f850160051c810160208610156127265750805b601f850160051c820191505b8181101561274557828155600101612732565b505050505050565b815167ffffffffffffffff811115612767576127676121f2565b61277b816127758454612634565b846126ff565b602080601f8311600181146127b057600084156127985750858301515b600019600386901b1c1916600185901b178555612745565b600085815260208120601f198616915b828110156127df578886015182559484019460019091019084016127c0565b50858210156127fd5787850151600019600388901b60f8161c191681555b5050505050600190811b01905550565b838152826020820152606060408201526000610c896060830184612092565b60ff828116828216039081111561046c5761046c6126d0565b808202811582820484141761046c5761046c6126d0565b60008261287957634e487b7160e01b600052601260045260246000fd5b500490565b600083516020612891828583890161206e565b8184019150600085546128a381612634565b600182811680156128bb57600181146128d0576128fc565b60ff19841687528215158302870194506128fc565b896000528560002060005b848110156128f4578154898201529083019087016128db565b505082870194505b50929998505050505050505050565b6001600160a01b038581168252841660208201526040810183905260806060820181905260009061166190830184612092565b60006020828403121561295057600080fd5b815161206781612034565b8181038181111561046c5761046c6126d0565b634e487b7160e01b600052603160045260246000fdfea26469706673582212201c262ad6dbad4fbffdcd656cbbef5bc8349453d2aac82dbd79f75b742a3ab80564736f6c63430008140033",
  "devdoc": {
    "errors": {
      "ERC721EnumerableForbiddenBatchMint()": [
        {
          "details": "Batch mint is not allowed."
        }
      ],
      "ERC721IncorrectOwner(address,uint256,address)": [
        {
          "details": "Indicates an error related to the ownership over a particular token. Used in transfers.",
          "params": {
            "owner": "Address of the current owner of a token.",
            "sender": "Address whose tokens are being transferred.",
            "tokenId": "Identifier number of a token."
          }
        }
      ],
      "ERC721InsufficientApproval(address,uint256)": [
        {
          "details": "Indicates a failure with the `operator`s approval. Used in transfers.",
          "params": {
            "operator": "Address that may be allowed to operate on tokens without being their owner.",
            "tokenId": "Identifier number of a token."
          }
        }
      ],
      "ERC721InvalidApprover(address)": [
        {
          "details": "Indicates a failure with the `approver` of a token to be approved. Used in approvals.",
          "params": {
            "approver": "Address initiating an approval operation."
          }
        }
      ],
      "ERC721InvalidOperator(address)": [
        {
          "details": "Indicates a failure with the `operator` to be approved. Used in approvals.",
          "params": {
            "operator": "Address that may be allowed to operate on tokens without being their owner."
          }
        }
      ],
      "ERC721InvalidOwner(address)": [
        {
          "details": "Indicates that an address can't be an owner. For example, `address(0)` is a forbidden owner in EIP-20. Used in balance queries.",
          "params": {
            "owner": "Address of the current owner of a token."
          }
        }
      ],
      "ERC721InvalidReceiver(address)": [
        {
          "details": "Indicates a failure with the token `receiver`. Used in transfers.",
          "params": {
            "receiver": "Address to which tokens are being transferred."
          }
        }
      ],
      "ERC721InvalidSender(address)": [
        {
          "details": "Indicates a failure with the token `sender`. Used in transfers.",
          "params": {
            "sender": "Address whose tokens are being transferred."
          }
        }
      ],
      "ERC721NonexistentToken(uint256)": [
        {
          "details": "Indicates a `tokenId` whose `owner` is the zero address.",
          "params": {
            "tokenId": "Identifier number of a token."
          }
        }
      ],
      "ERC721OutOfBoundsIndex(address,uint256)": [
        {
          "details": "An `owner`'s token query was out of bounds for `index`. NOTE: The owner being `address(0)` indicates a global out of bounds index."
        }
      ],
      "OwnableInvalidOwner(address)": [
        {
          "details": "The owner is not a valid owner account. (eg. `address(0)`)"
        }
      ],
      "OwnableUnauthorizedAccount(address)": [
        {
          "details": "The caller account is not authorized to perform an operation."
        }
      ],
      "ReentrancyGuardReentrantCall()": [
        {
          "details": "Unauthorized reentrant call."
        }
      ]
    },
    "events": {
      "Approval(address,address,uint256)": {
        "details": "Emitted when `owner` enables `approved` to manage the `tokenId` token."
      },
      "ApprovalForAll(address,address,bool)": {
        "details": "Emitted when `owner` enables or disables (`approved`) `operator` to manage all of its assets."
      },
      "Transfer(address,address,uint256)": {
        "details": "Emitted when `tokenId` token is transferred from `from` to `to`."
      }
    },
    "kind": "dev",
    "methods": {
      "approve(address,uint256)": {
        "details": "See {IERC721-approve}."
      },
      "balanceOf(address)": {
        "details": "See {IERC721-balanceOf}."
      },
      "getApproved(uint256)": {
        "details": "See {IERC721-getApproved}."
      },
      "isApprovedForAll(address,address)": {
        "details": "See {IERC721-isApprovedForAll}."
      },
      "name()": {
        "details": "See {IERC721Metadata-name}."
      },
      "owner()": {
        "details": "Returns the address of the current owner."
      },
      "ownerOf(uint256)": {
        "details": "See {IERC721-ownerOf}."
      },
      "renounceOwnership()": {
        "details": "Leaves the contract without owner. It will not be possible to call `onlyOwner` functions. Can only be called by the current owner. NOTE: Renouncing ownership will leave the contract without an owner, thereby disabling any functionality that is only available to the owner."
      },
      "safeTransferFrom(address,address,uint256)": {
        "details": "See {IERC721-safeTransferFrom}."
      },
      "safeTransferFrom(address,address,uint256,bytes)": {
        "details": "See {IERC721-safeTransferFrom}."
      },
      "setApprovalForAll(address,bool)": {
        "details": "See {IERC721-setApprovalForAll}."
      },
      "symbol()": {
        "details": "See {IERC721Metadata-symbol}."
      },
      "tokenByIndex(uint256)": {
        "details": "See {IERC721Enumerable-tokenByIndex}."
      },
      "tokenOfOwnerByIndex(address,uint256)": {
        "details": "See {IERC721Enumerable-tokenOfOwnerByIndex}."
      },
      "tokenURI(uint256)": {
        "details": "See {IERC721Metadata-tokenURI}."
      },
      "totalSupply()": {
        "details": "See {IERC721Enumerable-totalSupply}."
      },
      "transferFrom(address,address,uint256)": {
        "details": "See {IERC721-transferFrom}."
      },
      "transferOwnership(address)": {
        "details": "Transfers ownership of the contract to a new account (`newOwner`). Can only be called by the current owner."
      }
    },
    "version": 1
  },
  "userdoc": {
    "kind": "user",
    "methods": {},
    "version": 1
  },
  "storageLayout": {
    "storage": [
      {
        "astId": 721,
        "contract": "contracts/InvoiceNFT.sol:InvoiceNFT",
        "label": "_name",
        "offset": 0,
        "slot": "0",
        "type": "t_string_storage"
      },
      {
        "astId": 723,
        "contract": "contracts/InvoiceNFT.sol:InvoiceNFT",
        "label": "_symbol",
        "offset": 0,
        "slot": "1",
        "type": "t_string_storage"
      },
      {
        "astId": 727,
        "contract": "contracts/InvoiceNFT.sol:InvoiceNFT",
        "label": "_owners",
        "offset": 0,
        "slot": "2",
        "type": "t_mapping(t_uint256,t_address)"
      },
      {
        "astId": 731,
        "contract": "contracts/InvoiceNFT.sol:InvoiceNFT",
        "label": "_balances",
        "offset": 0,
        "slot": "3",
        "type": "t_mapping(t_address,t_uint256)"
      },
      {
        "astId": 735,
        "contract": "contracts/InvoiceNFT.sol:InvoiceNFT",
        "label": "_tokenApprovals",
        "offset": 0,
        "slot": "4",
        "type": "t_mapping(t_uint256,t_address)"
      },
      {
        "astId": 741,
        "contract": "contracts/InvoiceNFT.sol:InvoiceNFT",
        "label": "_operatorApprovals",
        "offset": 0,
        "slot": "5",
        "type": "t_mapping(t_address,t_mapping(t_address,t_bool))"
      },
      {
        "astId": 1851,
        "contract": "contracts/InvoiceNFT.sol:InvoiceNFT",
        "label": "_ownedTokens",
        "offset": 0,
        "slot": "6",
        "type": "t_mapping(t_address,t_mapping(t_uint256,t_uint256))"
      },
      {
        "astId": 1855,
        "contract": "contracts/InvoiceNFT.sol:InvoiceNFT",
        "label": "_ownedTokensIndex",
        "offset": 0,
        "slot": "7",
        "type": "t_mapping(t_uint256,t_uint256)"
      },
      {
        "astId": 1858,
        "contract": "contracts/InvoiceNFT.sol:InvoiceNFT",
        "label": "_allTokens",
        "offset": 0,
        "slot": "8",
        "type": "t_array(t_uint256)dyn_storage"
      },
      {
        "astId": 1862,
        "contract": "contracts/InvoiceNFT.sol:InvoiceNFT",
        "label": "_allTokensIndex",
        "offset": 0,
        "slot": "9",
        "type": "t_mapping(t_uint256,t_uint256)"
      },
      {
        "astId": 8,
        "contract": "contracts/InvoiceNFT.sol:InvoiceNFT",
        "label": "_owner",
        "offset": 0,
        "slot": "10",
        "type": "t_address"
      },
      {
        "astId": 2570,
        "contract": "contracts/InvoiceNFT.sol:InvoiceNFT",
        "label": "_status",
        "offset": 0,
        "slot": "11",
        "type": "t_uint256"
      },
      {
        "astId": 4985,
        "contract": "contracts/InvoiceNFT.sol:InvoiceNFT",
        "label": "_tokenIdCounter",
        "offset": 0,
        "slot": "12",
        "type": "t_uint256"
      },
      {
        "astId": 4990,
        "contract": "contracts/InvoiceNFT.sol:InvoiceNFT",
        "label": "invoiceInfo",
        "offset": 0,
        "slot": "13",
        "type": "t_mapping(t_uint256,t_struct(InvoiceInfo)4975_storage)"
      },
      {
        "astId": 4994,
        "contract": "contracts/InvoiceNFT.sol:InvoiceNFT",
        "label": "invoiceHashes",
        "offset": 0,
        "slot": "14",
        "type": "t_mapping(t_string_memory_ptr,t_bool)"
      },
      {
        "astId": 4998,
        "contract": "contracts/InvoiceNFT.sol:InvoiceNFT",
        "label": "authorizedLockers",
        "offset": 0,
        "slot": "15",
        "type": "t_mapping(t_address,t_bool)"
      }
    ],
    "types": {
      "t_address": {
        "encoding": "inplace",
        "label": "address",
        "numberOfBytes": "20"
      },
      "t_array(t_uint256)dyn_storage": {
        "base": "t_uint256",
        "encoding": "dynamic_array",
        "label": "uint256[]",
        "numberOfBytes": "32"
      },
      "t_bool": {
        "encoding": "inplace",
        "label": "bool",
        "numberOfBytes": "1"
      },
      "t_mapping(t_address,t_bool)": {
        "encoding": "mapping",
        "key": "t_address",
        "label": "mapping(address => bool)",
        "numberOfBytes": "32",
        "value": "t_bool"
      },
      "t_mapping(t_address,t_mapping(t_address,t_bool))": {
        "encoding": "mapping",
        "key": "t_address",
        "label": "mapping(address => mapping(address => bool))",
        "numberOfBytes": "32",
        "value": "t_mapping(t_address,t_bool)"
      },
      "t_mapping(t_address,t_mapping(t_uint256,t_uint256))": {
        "encoding": "mapping",
        "key": "t_address",
        "label": "mapping(address => mapping(uint256 => uint256))",
        "numberOfBytes": "32",
        "value": "t_mapping(t_uint256,t_uint256)"
      },
      "t_mapping(t_address,t_uint256)": {
        "encoding": "mapping",
        "key": "t_address",
        "label": "mapping(address => uint256)",
        "numberOfBytes": "32",
        "value": "t_uint256"
      },
      "t_mapping(t_string_memory_ptr,t_bool)": {
        "encoding": "mapping",
        "key": "t_string_memory_ptr",
        "label": "mapping(string => bool)",
        "numberOfBytes": "32",
        "value": "t_bool"
      },
      "t_mapping(t_uint256,t_address)": {
        "encoding": "mapping",
        "key": "t_uint256",
        "label": "mapping(uint256 => address)",
        "numberOfBytes": "32",
        "value": "t_address"
      },
      "t_mapping(t_uint256,t_struct(InvoiceInfo)4975_storage)": {
        "encoding": "mapping",
        "key": "t_uint256",
        "label": "mapping(uint256 => struct InvoiceInfo)",
        "numberOfBytes": "32",
        "value": "t_struct(InvoiceInfo)4975_storage"
      },
      "t_mapping(t_uint256,t_uint256)": {
        "encoding": "mapping",
        "key": "t_uint256",
        "label": "mapping(uint256 => uint256)",
        "numberOfBytes": "32",
        "value": "t_uint256"
      },
      "t_string_memory_ptr": {
        "encoding": "bytes",
        "label": "string",
        "numberOfBytes": "32"
      },
      "t_string_storage": {
        "encoding": "bytes",
        "label": "string",
        "numberOfBytes": "32"
      },
      "t_struct(InvoiceInfo)4975_storage": {
        "encoding": "inplace",
        "label": "struct InvoiceInfo",
        "members": [
          {
            "astId": 4956,
            "contract": "contracts/InvoiceNFT.sol:InvoiceNFT",
            "label": "amount",
            "offset": 0,
            "slot": "0",
            "type": "t_uint256"
          },
          {
            "astId": 4958,
            "contract": "contracts/InvoiceNFT.sol:InvoiceNFT",
            "label": "dueDate",
            "offset": 0,
            "slot": "1",
            "type": "t_uint256"
          },
          {
            "astId": 4960,
            "contract": "contracts/InvoiceNFT.sol:InvoiceNFT",
            "label": "issuer",
            "offset": 0,
            "slot": "2",
            "type": "t_string_storage"
          },
          {
            "astId": 4962,
            "contract": "contracts/InvoiceNFT.sol:InvoiceNFT",
            "label": "recipient",
            "offset": 0,
            "slot": "3",
            "type": "t_string_storage"
          },
          {
            "astId": 4964,
            "contract": "contracts/InvoiceNFT.sol:InvoiceNFT",
            "label": "ipfsHash",
            "offset": 0,
            "slot": "4",
            "type": "t_string_storage"
          },
          {
            "astId": 4966,
            "contract": "contracts/InvoiceNFT.sol:InvoiceNFT",
            "label": "verified",
            "offset": 0,
            "slot": "5",
            "type": "t_bool"
          },
          {
            "astId": 4968,
            "contract": "contracts/InvoiceNFT.sol:InvoiceNFT",
            "label": "fraudScore",
            "offset": 1,
            "slot": "5",
            "type": "t_uint8"
          },
          {
            "astId": 4970,
            "contract": "contracts/InvoiceNFT.sol:InvoiceNFT",
            "label": "collateralValue",
            "offset": 0,
            "slot": "6",
            "type": "t_uint256"
          },
          {
            "astId": 4972,
            "contract": "contracts/InvoiceNFT.sol:InvoiceNFT",
            "label": "borrower",
            "offset": 0,
            "slot": "7",
            "type": "t_address"
          },
          {
            "astId": 4974,
            "contract": "contracts/InvoiceNFT.sol:InvoiceNFT",
            "label": "locked",
            "offset": 20,
            "slot": "7",
            "type": "t_bool"
          }
        ],
        "numberOfBytes": "256"
      },
      "t_uint256": {
        "encoding": "inplace",
        "label": "uint256",
        "numberOfBytes": "32"
      },
      "t_uint8": {
        "encoding": "inplace",
        "label": "uint8",
        "numberOfBytes": "1"
      }
    }
  }
}