{
  "address": "0xd360FBD31796a04c9cA3AC4E333b8cfB4bE98b50",
  "abi": [
    {
      "inputs": [
        {
          "internalType": "address",
          "name": "_invoiceNFT",
          "type": "address"
        }
      ],
      "stateMutability": "nonpayable",
      "type": "constructor"
    },
    {
      "inputs": [
        {
          "internalType": "address",
          "name": "owner",
          "type": "address"
        }
      ],
      "name": "OwnableInvalidOwner",
      "type": "error"
    },
    {
      "inputs": [
        {
          "internalType": "address",
          "name": "account",
          "type": "address"
        }
      ],
      "name": "OwnableUnauthorizedAccount",
      "type": "error"
    },
    {
      "anonymous": false,
      "inputs": [
        {
          "indexed": true,
          "internalType": "uint256",
          "name": "invoiceTokenId",
          "type": "uint256"
        },
        {
          "indexed": true,
          "internalType": "address",
          "name": "verifier",
          "type": "address"
        },
        {
          "indexed": false,
          "internalType": "bool",
          "name": "verified",
          "type": "bool"
        },
        {
          "indexed": false,
          "internalType": "uint8",
          "name": "fraudScore",
          "type": "uint8"
        },
        {
          "indexed": false,
          "internalType": "string",
          "name": "reason",
          "type": "string"
        }
      ],
      "name": "InvoiceVerified",
      "type": "event"
    },
    {
      "anonymous": false,
      "inputs": [
        {
          "indexed": true,
          "internalType": "address",
          "name": "previousOwner",
          "type": "address"
        },
        {
          "indexed": true,
          "internalType": "address",
          "name": "newOwner",
          "type": "address"
        }
      ],
      "name": "OwnershipTransferred",
      "type": "event"
    },
    {
      "anonymous": false,
      "inputs": [
        {
          "indexed": true,
          "internalType": "address",
          "name": "agent",
          "type": "address"
        }
      ],
      "name": "VerificationAgentAdded",
      "type": "event"
    },
    {
      "anonymous": false,
      "inputs": [
        {
          "indexed": true,
          "internalType": "address",
          "name": "agent",
          "type": "address"
        }
      ],
      "name": "VerificationAgentRemoved",
      "type": "event"
    },
    {
      "inputs": [
        {
          "internalType": "address",
          "name": "agent",
          "type": "address"
        }
      ],
      "name": "addVerificationAgent",
      "outputs": [],
      "stateMutability": "nonpayable",
      "type": "function"
    },
    {
      "inputs": [
        {
          "internalType": "uint256[]",
          "name": "invoiceTokenIds",
          "type": "uint256[]"
        },
        {
          "internalType": "bool[]",
          "name": "verified",
          "type": "bool[]"
        },
        {
          "internalType": "uint8[]",
          "name": "fraudScores",
          "type": "uint8[]"
        },
        {
          "internalType": "string[]",
          "name": "reasons",
          "type": "string[]"
        }
      ],
      "name": "batchVerifyInvoices",
      "outputs": [],
      "stateMutability": "nonpayable",
      "type": "function"
    },
    {
      "inputs": [],
      "name": "invoiceNFT",
      "outputs": [
        {
          "internalType": "contract InvoiceNFT",
          "name": "",
          "type": "address"
        }
      ],
      "stateMutability": "view",
      "type": "function"
    },
    {
      "inputs": [],
      "name": "owner",
      "outputs": [
        {
          "internalType": "address",
          "name": "",
          "type": "address"
        }
      ],
      "stateMutability": "view",
      "type": "function"
    },
    {
      "inputs": [],
      "name": "pauseInvoiceContract",
      "outputs": [],
      "stateMutability": "nonpayable",
      "type": "function"
    },
    {
      "inputs": [
        {
          "internalType": "address",
          "name": "agent",
          "type": "address"
        }
      ],
      "name": "removeVerificationAgent",
      "outputs": [],
      "stateMutability": "nonpayable",
      "type": "function"
    },
    {
      "inputs": [],
      "name": "renounceOwnership",
      "outputs": [],
      "stateMutability": "nonpayable",
      "type": "function"
    },
    {
      "inputs": [
        {
          "internalType": "address",
          "name": "newOwner",
          "type": "address"
        }
      ],
      "name": "transferOwnership",
      "outputs": [],
      "stateMutability": "nonpayable",
      "type": "function"
    },
    {
      "inputs": [
        {
          "internalType": "address",
          "name": "newOwner",
          "type": "address"
        }
      ],
      "name": "unpauseInvoiceContract",
      "outputs": [],
      "stateMutability": "nonpayable",
      "type": "function"
    },
    {
      "inputs": [
        {
          "internalType": "address",
          "name": "",
          "type": "address"
        }
      ],
      "name": "verificationAgents",
      "outputs": [
        {
          "internalType": "bool",
          "name": "",
          "type": "bool"
        }
      ],
      "stateMutability": "view",
      "type": "function"
    },
    {
      "inputs": [
        {
          "internalType": "uint256",
          "name": "invoiceTokenId",
          "type": "uint256"
        },
        {
          "internalType": "bool",
          "name": "verified",
          "type": "bool"
        },
        {
          "internalType": "uint8",
          "name": "fraudScore",
          "type": "uint8"
        },
        {
          "internalType": "string",
          "name": "reason",
          "type": "string"
        }
      ],
      "name": "verifyInvoice",
      "outputs": [],
      "stateMutability": "nonpayable",
      "type": "function"
    }
  ],
  "transactionHash": "0xc34e862ee97796718ea95f5d45dd7bfcd5ed57bb31fa2dbe373385420c4a59a7",
  "args": [
    "0xB202C1E153984028594b0d8217E218C25dFe178e"
  ],
  "numDeployments": 1,
  "solcInputHash": "d5dac6d03b1acef46706edc9642b5c43",
  "bytecode": "0x608060405234801561001057600080fd5b50604051610e6d380380610e6d83398101604081905261002f9161012b565b338061005657604051631e4fbdf760e01b8152600060048201526024015b60405180910390fd5b61005f816100db565b506001600160a01b0381166100b65760405162461bcd60e51b815260206004820152601a60248201527f496e76616c696420496e766f6963654e46542061646472657373000000000000604482015260640161004d565b600180546001600160a01b0319166001600160a01b039290921691909117905561015b565b600080546001600160a01b038381166001600160a01b0319831681178455604051919092169283917f8be0079c531659141344cd1fd0a4f28419497f9722a3daafe3b4186f6b6457e09190a35050565b60006020828403121561013d57600080fd5b81516001600160a01b038116811461015457600080fd5b9392505050565b610d038061016a6000396000f3fe608060405234801561001057600080fd5b50600436106100a95760003560e01c8063715018a611610071578063715018a6146101415780638da5cb5b14610149578063bb0660651461015a578063d69c8fe71461016d578063d9c4a57f14610180578063f2fde38b1461019357600080fd5b80631f53188b146100ae5780631fa37fe9146100b8578063329af743146100f057806334c2e720146101035780634bb6f06d14610116575b600080fd5b6100b66101a6565b005b6100db6100c636600461080a565b60026020526000908152604090205460ff1681565b60405190151581526020015b60405180910390f35b6100b66100fe366004610917565b61020d565b6100b661011136600461080a565b61034b565b600154610129906001600160a01b031681565b6040516001600160a01b0390911681526020016100e7565b6100b661039c565b6000546001600160a01b0316610129565b6100b6610168366004610af7565b6103b0565b6100b661017b36600461080a565b61064a565b6100b661018e36600461080a565b6106ad565b6100b66101a136600461080a565b61074f565b6101ae61078d565b60015460405163f2fde38b60e01b81523360048201526001600160a01b039091169063f2fde38b90602401600060405180830381600087803b1580156101f357600080fd5b505af1158015610207573d6000803e3d6000fd5b50505050565b3360009081526002602052604090205460ff1661026c5760405162461bcd60e51b8152602060048201526018602482015277139bdd0818481d995c9a599a58d85d1a5bdb881859d95b9d60421b60448201526064015b60405180910390fd5b60648260ff1611156102905760405162461bcd60e51b815260040161026390610bed565b600154604051639e6203e760e01b815260048101869052841515602482015260ff841660448201526001600160a01b0390911690639e6203e790606401600060405180830381600087803b1580156102e757600080fd5b505af11580156102fb573d6000803e3d6000fd5b50505050336001600160a01b0316847f74d17d271e3a9191d500da97f8b364bffd318d97213122f8168252aab5dbc02b85858560405161033d93929190610c2e565b60405180910390a350505050565b61035361078d565b6001600160a01b038116600081815260026020526040808220805460ff19169055517fee7c3678b2bc08495cf3e616bdb7794f33fce4d78dcf75bde643ac2185a694349190a250565b6103a461078d565b6103ae60006107ba565b565b3360009081526002602052604090205460ff1661040a5760405162461bcd60e51b8152602060048201526018602482015277139bdd0818481d995c9a599a58d85d1a5bdb881859d95b9d60421b6044820152606401610263565b8251845114801561041c575081518451145b8015610429575080518451145b6104755760405162461bcd60e51b815260206004820152601860248201527f4172726179206c656e67746873206d757374206d6174636800000000000000006044820152606401610263565b60005b845181101561064357606483828151811061049557610495610c90565b602002602001015160ff1611156104be5760405162461bcd60e51b815260040161026390610bed565b60015485516001600160a01b0390911690639e6203e7908790849081106104e7576104e7610c90565b602002602001015186848151811061050157610501610c90565b602002602001015186858151811061051b5761051b610c90565b60200260200101516040518463ffffffff1660e01b815260040161055593929190928352901515602083015260ff16604082015260600190565b600060405180830381600087803b15801561056f57600080fd5b505af1158015610583573d6000803e3d6000fd5b50505050336001600160a01b03168582815181106105a3576105a3610c90565b60200260200101517f74d17d271e3a9191d500da97f8b364bffd318d97213122f8168252aab5dbc02b8684815181106105de576105de610c90565b60200260200101518685815181106105f8576105f8610c90565b602002602001015186868151811061061257610612610c90565b602002602001015160405161062993929190610c2e565b60405180910390a38061063b81610ca6565b915050610478565b5050505050565b61065261078d565b60015460405163f2fde38b60e01b81526001600160a01b0383811660048301529091169063f2fde38b90602401600060405180830381600087803b15801561069957600080fd5b505af1158015610643573d6000803e3d6000fd5b6106b561078d565b6001600160a01b0381166107035760405162461bcd60e51b8152602060048201526015602482015274496e76616c6964206167656e74206164647265737360581b6044820152606401610263565b6001600160a01b038116600081815260026020526040808220805460ff19166001179055517f20b45dfe2c4c291803104caddfa18c0660b099cd46521578f78438dbda3d6d439190a250565b61075761078d565b6001600160a01b03811661078157604051631e4fbdf760e01b815260006004820152602401610263565b61078a816107ba565b50565b6000546001600160a01b031633146103ae5760405163118cdaa760e01b8152336004820152602401610263565b600080546001600160a01b038381166001600160a01b0319831681178455604051919092169283917f8be0079c531659141344cd1fd0a4f28419497f9722a3daafe3b4186f6b6457e09190a35050565b60006020828403121561081c57600080fd5b81356001600160a01b038116811461083357600080fd5b9392505050565b8035801515811461084a57600080fd5b919050565b803560ff8116811461084a57600080fd5b634e487b7160e01b600052604160045260246000fd5b604051601f8201601f1916810167ffffffffffffffff8111828210171561089f5761089f610860565b604052919050565b600082601f8301126108b857600080fd5b813567ffffffffffffffff8111156108d2576108d2610860565b6108e5601f8201601f1916602001610876565b8181528460208386010111156108fa57600080fd5b816020850160208301376000918101602001919091529392505050565b6000806000806080858703121561092d57600080fd5b8435935061093d6020860161083a565b925061094b6040860161084f565b9150606085013567ffffffffffffffff81111561096757600080fd5b610973878288016108a7565b91505092959194509250565b600067ffffffffffffffff82111561099957610999610860565b5060051b60200190565b600082601f8301126109b457600080fd5b813560206109c96109c48361097f565b610876565b82815260059290921b840181019181810190868411156109e857600080fd5b8286015b84811015610a0a576109fd8161083a565b83529183019183016109ec565b509695505050505050565b600082601f830112610a2657600080fd5b81356020610a366109c48361097f565b82815260059290921b84018101918181019086841115610a5557600080fd5b8286015b84811015610a0a57610a6a8161084f565b8352918301918301610a59565b600082601f830112610a8857600080fd5b81356020610a986109c48361097f565b82815260059290921b84018101918181019086841115610ab757600080fd5b8286015b84811015610a0a57803567ffffffffffffffff811115610adb5760008081fd5b610ae98986838b01016108a7565b845250918301918301610abb565b60008060008060808587031215610b0d57600080fd5b843567ffffffffffffffff80821115610b2557600080fd5b818701915087601f830112610b3957600080fd5b81356020610b496109c48361097f565b82815260059290921b8401810191818101908b841115610b6857600080fd5b948201945b83861015610b8657853582529482019490820190610b6d565b98505088013592505080821115610b9c57600080fd5b610ba8888389016109a3565b94506040870135915080821115610bbe57600080fd5b610bca88838901610a15565b93506060870135915080821115610be057600080fd5b5061097387828801610a77565b60208082526021908201527f46726175642073636f7265206d757374206265206265747765656e20302d31306040820152600360fc1b606082015260800190565b83151581526000602060ff85168184015260606040840152835180606085015260005b81811015610c6d57858101830151858201608001528201610c51565b506000608082860101526080601f19601f83011685010192505050949350505050565b634e487b7160e01b600052603260045260246000fd5b600060018201610cc657634e487b7160e01b600052601160045260246000fd5b506001019056fea2646970667358221220a56c0dcba44a3277a47366801c9b5a2e5ff023b1abacdd4887210a0a6196035564736f6c63430008140033",
  "devdoc": {
    "errors": {
      "OwnableInvalidOwner(address)": [
        {
          "details": "The owner is not a valid owner account. (eg. `address(0)`)"
        }
      ],
      "OwnableUnauthorizedAccount(address)": [
        {
          "details": "The caller account is not authorized to perform an operation."
        }
      ]
    },
    "kind": "dev",
    "methods": {
      "owner()": {
        "details": "Returns the address of the current owner."
      },
      "renounceOwnership()": {
        "details": "Leaves the contract without owner. It will not be possible to call `onlyOwner` functions. Can only be called by the current owner. NOTE: Renouncing ownership will leave the contract without an owner, thereby disabling any functionality that is only available to the owner."
      },
      "transferOwnership(address)": {
        "details": "Transfers ownership of the contract to a new account (`newOwner`). Can only be called by the current owner."
      }
    },
    "version": 1
  },
  "userdoc": {
    "kind": "user",
    "methods": {},
    "version": 1
  },
  "storageLayout": {
    "storage": [
      {
        "astId": 8,
        "contract": "contracts/InvoiceVerification.sol:InvoiceVerification",
        "label": "_owner",
        "offset": 0,
        "slot": "0",
        "type": "t_address"
      },
      {
        "astId": 5568,
        "contract": "contracts/InvoiceVerification.sol:InvoiceVerification",
        "label": "invoiceNFT",
        "offset": 0,
        "slot": "1",
        "type": "t_contract(InvoiceNFT)5559"
      },
      {
        "astId": 5572,
        "contract": "contracts/InvoiceVerification.sol:InvoiceVerification",
        "label": "verificationAgents",
        "offset": 0,
        "slot": "2",
        "type": "t_mapping(t_address,t_bool)"
      }
    ],
    "types": {
      "t_address": {
        "encoding": "inplace",
        "label": "address",
        "numberOfBytes": "20"
      },
      "t_bool": {
        "encoding": "inplace",
        "label": "bool",
        "numberOfBytes": "1"
      },
      "t_contract(InvoiceNFT)5559": {
        "encoding": "inplace",
        "label": "contract InvoiceNFT",
        "numberOfBytes": "20"
      },
      "t_mapping(t_address,t_bool)": {
        "encoding": "mapping",
        "key": "t_address",
        "label": "mapping(address => bool)",
        "numberOfBytes": "32",
        "value": "t_bool"
      }
    }
  }
}